{
  "address": "0x0F527785e39B22911946feDf580d87a4E00465f0",
  "abi": [
    {
      "inputs": [],
      "stateMutability": "nonpayable",
      "type": "constructor"
    },
    {
      "inputs": [],
      "name": "NFTMarket__InvalidPrice",
      "type": "error"
    },
    {
      "inputs": [],
      "name": "NFTMarket__NFTnotListed",
      "type": "error"
    },
    {
      "inputs": [],
      "name": "NFTMarket__NotOwner",
      "type": "error"
    },
    {
      "inputs": [],
      "name": "NFTMarket__ZeroBalance",
      "type": "error"
    },
    {
      "anonymous": false,
      "inputs": [
        {
          "indexed": true,
          "internalType": "address",
          "name": "owner",
          "type": "address"
        },
        {
          "indexed": true,
          "internalType": "address",
          "name": "approved",
          "type": "address"
        },
        {
          "indexed": true,
          "internalType": "uint256",
          "name": "tokenId",
          "type": "uint256"
        }
      ],
      "name": "Approval",
      "type": "event"
    },
    {
      "anonymous": false,
      "inputs": [
        {
          "indexed": true,
          "internalType": "address",
          "name": "owner",
          "type": "address"
        },
        {
          "indexed": true,
          "internalType": "address",
          "name": "operator",
          "type": "address"
        },
        {
          "indexed": false,
          "internalType": "bool",
          "name": "approved",
          "type": "bool"
        }
      ],
      "name": "ApprovalForAll",
      "type": "event"
    },
    {
      "anonymous": false,
      "inputs": [
        {
          "indexed": false,
          "internalType": "uint256",
          "name": "tokenId",
          "type": "uint256"
        },
        {
          "indexed": false,
          "internalType": "address",
          "name": "to",
          "type": "address"
        },
        {
          "indexed": false,
          "internalType": "string",
          "name": "tokenUri",
          "type": "string"
        },
        {
          "indexed": false,
          "internalType": "uint256",
          "name": "price",
          "type": "uint256"
        }
      ],
      "name": "NftTransfer",
      "type": "event"
    },
    {
      "anonymous": false,
      "inputs": [
        {
          "indexed": true,
          "internalType": "address",
          "name": "previousOwner",
          "type": "address"
        },
        {
          "indexed": true,
          "internalType": "address",
          "name": "newOwner",
          "type": "address"
        }
      ],
      "name": "OwnershipTransferred",
      "type": "event"
    },
    {
      "anonymous": false,
      "inputs": [
        {
          "indexed": true,
          "internalType": "address",
          "name": "from",
          "type": "address"
        },
        {
          "indexed": true,
          "internalType": "address",
          "name": "to",
          "type": "address"
        },
        {
          "indexed": true,
          "internalType": "uint256",
          "name": "tokenId",
          "type": "uint256"
        }
      ],
      "name": "Transfer",
      "type": "event"
    },
    {
      "inputs": [
        {
          "internalType": "address",
          "name": "to",
          "type": "address"
        },
        {
          "internalType": "uint256",
          "name": "tokenId",
          "type": "uint256"
        }
      ],
      "name": "approve",
      "outputs": [],
      "stateMutability": "nonpayable",
      "type": "function"
    },
    {
      "inputs": [
        {
          "internalType": "address",
          "name": "owner",
          "type": "address"
        }
      ],
      "name": "balanceOf",
      "outputs": [
        {
          "internalType": "uint256",
          "name": "",
          "type": "uint256"
        }
      ],
      "stateMutability": "view",
      "type": "function"
    },
    {
      "inputs": [
        {
          "internalType": "uint256",
          "name": "tokenId",
          "type": "uint256"
        }
      ],
      "name": "buyNFT",
      "outputs": [],
      "stateMutability": "payable",
      "type": "function"
    },
    {
      "inputs": [
        {
          "internalType": "uint256",
          "name": "tokenId",
          "type": "uint256"
        }
      ],
      "name": "cancelListing",
      "outputs": [],
      "stateMutability": "nonpayable",
      "type": "function"
    },
    {
      "inputs": [
        {
          "internalType": "uint256",
          "name": "tokenId",
          "type": "uint256"
        }
      ],
      "name": "getApproved",
      "outputs": [
        {
          "internalType": "address",
          "name": "",
          "type": "address"
        }
      ],
      "stateMutability": "view",
      "type": "function"
    },
    {
      "inputs": [],
      "name": "getTokenId",
      "outputs": [
        {
          "internalType": "uint256",
          "name": "",
          "type": "uint256"
        }
      ],
      "stateMutability": "view",
      "type": "function"
    },
    {
      "inputs": [
        {
          "internalType": "address",
          "name": "owner",
          "type": "address"
        },
        {
          "internalType": "address",
          "name": "operator",
          "type": "address"
        }
      ],
      "name": "isApprovedForAll",
      "outputs": [
        {
          "internalType": "bool",
          "name": "",
          "type": "bool"
        }
      ],
      "stateMutability": "view",
      "type": "function"
    },
    {
      "inputs": [
        {
          "internalType": "uint256",
          "name": "tokenId",
          "type": "uint256"
        },
        {
          "internalType": "uint256",
          "name": "price",
          "type": "uint256"
        }
      ],
      "name": "listNFT",
      "outputs": [],
      "stateMutability": "nonpayable",
      "type": "function"
    },
    {
      "inputs": [
        {
          "internalType": "string",
          "name": "tokenURI",
          "type": "string"
        }
      ],
      "name": "mintNFT",
      "outputs": [],
      "stateMutability": "nonpayable",
      "type": "function"
    },
    {
      "inputs": [],
      "name": "name",
      "outputs": [
        {
          "internalType": "string",
          "name": "",
          "type": "string"
        }
      ],
      "stateMutability": "view",
      "type": "function"
    },
    {
      "inputs": [],
      "name": "owner",
      "outputs": [
        {
          "internalType": "address",
          "name": "",
          "type": "address"
        }
      ],
      "stateMutability": "view",
      "type": "function"
    },
    {
      "inputs": [
        {
          "internalType": "uint256",
          "name": "tokenId",
          "type": "uint256"
        }
      ],
      "name": "ownerOf",
      "outputs": [
        {
          "internalType": "address",
          "name": "",
          "type": "address"
        }
      ],
      "stateMutability": "view",
      "type": "function"
    },
    {
      "inputs": [],
      "name": "renounceOwnership",
      "outputs": [],
      "stateMutability": "nonpayable",
      "type": "function"
    },
    {
      "inputs": [
        {
          "internalType": "address",
          "name": "from",
          "type": "address"
        },
        {
          "internalType": "address",
          "name": "to",
          "type": "address"
        },
        {
          "internalType": "uint256",
          "name": "tokenId",
          "type": "uint256"
        }
      ],
      "name": "safeTransferFrom",
      "outputs": [],
      "stateMutability": "nonpayable",
      "type": "function"
    },
    {
      "inputs": [
        {
          "internalType": "address",
          "name": "from",
          "type": "address"
        },
        {
          "internalType": "address",
          "name": "to",
          "type": "address"
        },
        {
          "internalType": "uint256",
          "name": "tokenId",
          "type": "uint256"
        },
        {
          "internalType": "bytes",
          "name": "data",
          "type": "bytes"
        }
      ],
      "name": "safeTransferFrom",
      "outputs": [],
      "stateMutability": "nonpayable",
      "type": "function"
    },
    {
      "inputs": [
        {
          "internalType": "address",
          "name": "operator",
          "type": "address"
        },
        {
          "internalType": "bool",
          "name": "approved",
          "type": "bool"
        }
      ],
      "name": "setApprovalForAll",
      "outputs": [],
      "stateMutability": "nonpayable",
      "type": "function"
    },
    {
      "inputs": [
        {
          "internalType": "bytes4",
          "name": "interfaceId",
          "type": "bytes4"
        }
      ],
      "name": "supportsInterface",
      "outputs": [
        {
          "internalType": "bool",
          "name": "",
          "type": "bool"
        }
      ],
      "stateMutability": "view",
      "type": "function"
    },
    {
      "inputs": [],
      "name": "symbol",
      "outputs": [
        {
          "internalType": "string",
          "name": "",
          "type": "string"
        }
      ],
      "stateMutability": "view",
      "type": "function"
    },
    {
      "inputs": [
        {
          "internalType": "uint256",
          "name": "tokenId",
          "type": "uint256"
        }
      ],
      "name": "tokenURI",
      "outputs": [
        {
          "internalType": "string",
          "name": "",
          "type": "string"
        }
      ],
      "stateMutability": "view",
      "type": "function"
    },
    {
      "inputs": [
        {
          "internalType": "address",
          "name": "from",
          "type": "address"
        },
        {
          "internalType": "address",
          "name": "to",
          "type": "address"
        },
        {
          "internalType": "uint256",
          "name": "tokenId",
          "type": "uint256"
        }
      ],
      "name": "transferFrom",
      "outputs": [],
      "stateMutability": "nonpayable",
      "type": "function"
    },
    {
      "inputs": [
        {
          "internalType": "address",
          "name": "newOwner",
          "type": "address"
        }
      ],
      "name": "transferOwnership",
      "outputs": [],
      "stateMutability": "nonpayable",
      "type": "function"
    },
    {
      "inputs": [],
      "name": "withdrawFunds",
      "outputs": [],
      "stateMutability": "nonpayable",
      "type": "function"
    }
  ],
  "transactionHash": "0xfb0a78ab532589ed0715b982d55803dcf7a10c34aaa9f7e4d5578e81a86e135d",
  "args": [],
  "numDeployments": 1,
  "solcInputHash": "c2432dcd8b628e6cfd834c6b7ae79050",
  "bytecode": "0x60806040523480156200001157600080fd5b506040518060400160405280600a81526020017f4e4654204d61726b6574000000000000000000000000000000000000000000008152506040518060400160405280600481526020017f4e46544d0000000000000000000000000000000000000000000000000000000081525081600090816200008f919062000412565b508060019081620000a1919062000412565b505050620000c4620000b8620000ca60201b60201c565b620000d260201b60201c565b620004f9565b600033905090565b6000600760009054906101000a900473ffffffffffffffffffffffffffffffffffffffff16905081600760006101000a81548173ffffffffffffffffffffffffffffffffffffffff021916908373ffffffffffffffffffffffffffffffffffffffff1602179055508173ffffffffffffffffffffffffffffffffffffffff168173ffffffffffffffffffffffffffffffffffffffff167f8be0079c531659141344cd1fd0a4f28419497f9722a3daafe3b4186f6b6457e060405160405180910390a35050565b600081519050919050565b7f4e487b7100000000000000000000000000000000000000000000000000000000600052604160045260246000fd5b7f4e487b7100000000000000000000000000000000000000000000000000000000600052602260045260246000fd5b600060028204905060018216806200021a57607f821691505b60208210810362000230576200022f620001d2565b5b50919050565b60008190508160005260206000209050919050565b60006020601f8301049050919050565b600082821b905092915050565b6000600883026200029a7fffffffffffffffffffffffffffffffffffffffffffffffffffffffffffffffff826200025b565b620002a686836200025b565b95508019841693508086168417925050509392505050565b6000819050919050565b6000819050919050565b6000620002f3620002ed620002e784620002be565b620002c8565b620002be565b9050919050565b6000819050919050565b6200030f83620002d2565b620003276200031e82620002fa565b84845462000268565b825550505050565b600090565b6200033e6200032f565b6200034b81848462000304565b505050565b5b8181101562000373576200036760008262000334565b60018101905062000351565b5050565b601f821115620003c2576200038c8162000236565b62000397846200024b565b81016020851015620003a7578190505b620003bf620003b6856200024b565b83018262000350565b50505b505050565b600082821c905092915050565b6000620003e760001984600802620003c7565b1980831691505092915050565b6000620004028383620003d4565b9150826002028217905092915050565b6200041d8262000198565b67ffffffffffffffff811115620004395762000438620001a3565b5b62000445825462000201565b6200045282828562000377565b600060209050601f8311600181146200048a576000841562000475578287015190505b620004818582620003f4565b865550620004f1565b601f1984166200049a8662000236565b60005b82811015620004c4578489015182556001820191506020850194506020810190506200049d565b86831015620004e45784890151620004e0601f891682620003d4565b8355505b6001600288020188555050505b505050505050565b613b6680620005096000396000f3fe6080604052600436106101355760003560e01c806370a08231116100ab578063a22cb4651161006f578063a22cb465146103f1578063b88d4fde1461041a578063c87b56dd14610443578063e985e9c514610480578063f2fde38b146104bd578063fb37e883146104e657610135565b806370a082311461031e578063715018a61461035b5780638da5cb5b1461037257806394383f141461039d57806395d89b41146103c657610135565b806323b872dd116100fd57806323b872dd1461023357806324600fc31461025c578063305a67a81461027357806342842e0e1461029c57806351ed8288146102c55780636352211e146102e157610135565b8063010a38f51461013a57806301ffc9a71461016557806306fdde03146101a2578063081812fc146101cd578063095ea7b31461020a575b600080fd5b34801561014657600080fd5b5061014f61050f565b60405161015c91906125e9565b60405180910390f35b34801561017157600080fd5b5061018c60048036038101906101879190612670565b610520565b60405161019991906126b8565b60405180910390f35b3480156101ae57600080fd5b506101b7610602565b6040516101c49190612763565b60405180910390f35b3480156101d957600080fd5b506101f460048036038101906101ef91906127b1565b610694565b604051610201919061281f565b60405180910390f35b34801561021657600080fd5b50610231600480360381019061022c9190612866565b6106da565b005b34801561023f57600080fd5b5061025a600480360381019061025591906128a6565b6107f1565b005b34801561026857600080fd5b50610271610851565b005b34801561027f57600080fd5b5061029a600480360381019061029591906127b1565b6108e9565b005b3480156102a857600080fd5b506102c360048036038101906102be91906128a6565b610b29565b005b6102df60048036038101906102da91906127b1565b610b49565b005b3480156102ed57600080fd5b50610308600480360381019061030391906127b1565b610e3d565b604051610315919061281f565b60405180910390f35b34801561032a57600080fd5b50610345600480360381019061034091906128f9565b610ec3565b60405161035291906125e9565b60405180910390f35b34801561036757600080fd5b50610370610f7a565b005b34801561037e57600080fd5b50610387610f8e565b604051610394919061281f565b60405180910390f35b3480156103a957600080fd5b506103c460048036038101906103bf9190612926565b610fb8565b005b3480156103d257600080fd5b506103db6110d8565b6040516103e89190612763565b60405180910390f35b3480156103fd57600080fd5b5061041860048036038101906104139190612992565b61116a565b005b34801561042657600080fd5b50610441600480360381019061043c9190612b07565b611180565b005b34801561044f57600080fd5b5061046a600480360381019061046591906127b1565b6111e2565b6040516104779190612763565b60405180910390f35b34801561048c57600080fd5b506104a760048036038101906104a29190612b8a565b6112f4565b6040516104b491906126b8565b60405180910390f35b3480156104c957600080fd5b506104e460048036038101906104df91906128f9565b611388565b005b3480156104f257600080fd5b5061050d60048036038101906105089190612c6b565b61140b565b005b600061051b6008611479565b905090565b60007f80ac58cd000000000000000000000000000000000000000000000000000000007bffffffffffffffffffffffffffffffffffffffffffffffffffffffff1916827bffffffffffffffffffffffffffffffffffffffffffffffffffffffff191614806105eb57507f5b5e139f000000000000000000000000000000000000000000000000000000007bffffffffffffffffffffffffffffffffffffffffffffffffffffffff1916827bffffffffffffffffffffffffffffffffffffffffffffffffffffffff1916145b806105fb57506105fa82611487565b5b9050919050565b60606000805461061190612ce3565b80601f016020809104026020016040519081016040528092919081815260200182805461063d90612ce3565b801561068a5780601f1061065f5761010080835404028352916020019161068a565b820191906000526020600020905b81548152906001019060200180831161066d57829003601f168201915b5050505050905090565b600061069f826114f1565b6004600083815260200190815260200160002060009054906101000a900473ffffffffffffffffffffffffffffffffffffffff169050919050565b60006106e582610e3d565b90508073ffffffffffffffffffffffffffffffffffffffff168373ffffffffffffffffffffffffffffffffffffffff1603610755576040517f08c379a000000000000000000000000000000000000000000000000000000000815260040161074c90612d86565b60405180910390fd5b8073ffffffffffffffffffffffffffffffffffffffff1661077461153c565b73ffffffffffffffffffffffffffffffffffffffff1614806107a357506107a28161079d61153c565b6112f4565b5b6107e2576040517f08c379a00000000000000000000000000000000000000000000000000000000081526004016107d990612e18565b60405180910390fd5b6107ec8383611544565b505050565b6108026107fc61153c565b826115fd565b610841576040517f08c379a000000000000000000000000000000000000000000000000000000000815260040161083890612eaa565b60405180910390fd5b61084c838383611692565b505050565b61085961198b565b600047905060008111610898576040517f0f6d691300000000000000000000000000000000000000000000000000000000815260040160405180910390fd5b6108a0610f8e565b73ffffffffffffffffffffffffffffffffffffffff166108fc829081150290604051600060405180830381858888f193505050501580156108e5573d6000803e3d6000fd5b5050565b80600060096000838152602001908152602001600020604051806040016040529081600082015481526020016001820160009054906101000a900473ffffffffffffffffffffffffffffffffffffffff1673ffffffffffffffffffffffffffffffffffffffff1673ffffffffffffffffffffffffffffffffffffffff1681525050905060008160000151116109aa576040517fc7c0742a00000000000000000000000000000000000000000000000000000000815260040160405180910390fd5b82600060096000838152602001908152602001600020604051806040016040529081600082015481526020016001820160009054906101000a900473ffffffffffffffffffffffffffffffffffffffff1673ffffffffffffffffffffffffffffffffffffffff1673ffffffffffffffffffffffffffffffffffffffff168152505090503373ffffffffffffffffffffffffffffffffffffffff16816020015173ffffffffffffffffffffffffffffffffffffffff1614610a96576040517f7cf2c72b00000000000000000000000000000000000000000000000000000000815260040160405180910390fd5b600960008681526020019081526020016000206000808201600090556001820160006101000a81549073ffffffffffffffffffffffffffffffffffffffff02191690555050610ae63033876107f1565b7f32c6df98e953d61f4131320dd5ccfcb76d70ad39229f8fc4321b5c3e44336c7e85336000604051610b1a93929190612f35565b60405180910390a15050505050565b610b4483838360405180602001604052806000815250611180565b505050565b80600060096000838152602001908152602001600020604051806040016040529081600082015481526020016001820160009054906101000a900473ffffffffffffffffffffffffffffffffffffffff1673ffffffffffffffffffffffffffffffffffffffff1673ffffffffffffffffffffffffffffffffffffffff168152505090506000816000015111610c0a576040517fc7c0742a00000000000000000000000000000000000000000000000000000000815260040160405180910390fd5b600060096000858152602001908152602001600020604051806040016040529081600082015481526020016001820160009054906101000a900473ffffffffffffffffffffffffffffffffffffffff1673ffffffffffffffffffffffffffffffffffffffff1673ffffffffffffffffffffffffffffffffffffffff1681525050905034816000015114610cd2576040517f08c379a0000000000000000000000000000000000000000000000000000000008152600401610cc990612fcb565b60405180910390fd5b3073ffffffffffffffffffffffffffffffffffffffff166323b872dd3033876040518463ffffffff1660e01b8152600401610d0f93929190612feb565b600060405180830381600087803b158015610d2957600080fd5b505af1158015610d3d573d6000803e3d6000fd5b50505050600960008581526020019081526020016000206000808201600090556001820160006101000a81549073ffffffffffffffffffffffffffffffffffffffff02191690555050806020015173ffffffffffffffffffffffffffffffffffffffff166108fc610dcf6064610dc1605f8660000151611a0990919063ffffffff16565b611a1f90919063ffffffff16565b9081150290604051600060405180830381858888f19350505050158015610dfa573d6000803e3d6000fd5b507f32c6df98e953d61f4131320dd5ccfcb76d70ad39229f8fc4321b5c3e44336c7e84336000604051610e2f93929190612f35565b60405180910390a150505050565b600080610e4983611a35565b9050600073ffffffffffffffffffffffffffffffffffffffff168173ffffffffffffffffffffffffffffffffffffffff1603610eba576040517f08c379a0000000000000000000000000000000000000000000000000000000008152600401610eb19061306e565b60405180910390fd5b80915050919050565b60008073ffffffffffffffffffffffffffffffffffffffff168273ffffffffffffffffffffffffffffffffffffffff1603610f33576040517f08c379a0000000000000000000000000000000000000000000000000000000008152600401610f2a90613100565b60405180910390fd5b600360008373ffffffffffffffffffffffffffffffffffffffff1673ffffffffffffffffffffffffffffffffffffffff168152602001908152602001600020549050919050565b610f8261198b565b610f8c6000611a72565b565b6000600760009054906101000a900473ffffffffffffffffffffffffffffffffffffffff16905090565b60008111610ff2576040517f0471b37300000000000000000000000000000000000000000000000000000000815260040160405180910390fd5b610ffc30836106da565b6110073330846107f1565b60405180604001604052808281526020013373ffffffffffffffffffffffffffffffffffffffff16815250600960008481526020019081526020016000206000820151816000015560208201518160010160006101000a81548173ffffffffffffffffffffffffffffffffffffffff021916908373ffffffffffffffffffffffffffffffffffffffff1602179055509050507f32c6df98e953d61f4131320dd5ccfcb76d70ad39229f8fc4321b5c3e44336c7e8230836040516110cc93929190613120565b60405180910390a15050565b6060600180546110e790612ce3565b80601f016020809104026020016040519081016040528092919081815260200182805461111390612ce3565b80156111605780601f1061113557610100808354040283529160200191611160565b820191906000526020600020905b81548152906001019060200180831161114357829003601f168201915b5050505050905090565b61117c61117561153c565b8383611b38565b5050565b61119161118b61153c565b836115fd565b6111d0576040517f08c379a00000000000000000000000000000000000000000000000000000000081526004016111c790612eaa565b60405180910390fd5b6111dc84848484611ca4565b50505050565b60606111ed826114f1565b600060066000848152602001908152602001600020805461120d90612ce3565b80601f016020809104026020016040519081016040528092919081815260200182805461123990612ce3565b80156112865780601f1061125b57610100808354040283529160200191611286565b820191906000526020600020905b81548152906001019060200180831161126957829003601f168201915b505050505090506000611297611d00565b905060008151036112ac5781925050506112ef565b6000825111156112e15780826040516020016112c99291906131a6565b604051602081830303815290604052925050506112ef565b6112ea84611d17565b925050505b919050565b6000600560008473ffffffffffffffffffffffffffffffffffffffff1673ffffffffffffffffffffffffffffffffffffffff16815260200190815260200160002060008373ffffffffffffffffffffffffffffffffffffffff1673ffffffffffffffffffffffffffffffffffffffff16815260200190815260200160002060009054906101000a900460ff16905092915050565b61139061198b565b600073ffffffffffffffffffffffffffffffffffffffff168173ffffffffffffffffffffffffffffffffffffffff16036113ff576040517f08c379a00000000000000000000000000000000000000000000000000000000081526004016113f69061323c565b60405180910390fd5b61140881611a72565b50565b60006114176008611479565b90506114233382611d7f565b61142d8183611d9d565b6114376008611e0a565b7f32c6df98e953d61f4131320dd5ccfcb76d70ad39229f8fc4321b5c3e44336c7e813384600060405161146d949392919061325c565b60405180910390a15050565b600081600001549050919050565b60007f01ffc9a7000000000000000000000000000000000000000000000000000000007bffffffffffffffffffffffffffffffffffffffffffffffffffffffff1916827bffffffffffffffffffffffffffffffffffffffffffffffffffffffff1916149050919050565b6114fa81611e20565b611539576040517f08c379a00000000000000000000000000000000000000000000000000000000081526004016115309061306e565b60405180910390fd5b50565b600033905090565b816004600083815260200190815260200160002060006101000a81548173ffffffffffffffffffffffffffffffffffffffff021916908373ffffffffffffffffffffffffffffffffffffffff160217905550808273ffffffffffffffffffffffffffffffffffffffff166115b783610e3d565b73ffffffffffffffffffffffffffffffffffffffff167f8c5be1e5ebec7d5bd14f71427d1e84f3dd0314c0f7b2291e5b200ac8c7c3b92560405160405180910390a45050565b60008061160983610e3d565b90508073ffffffffffffffffffffffffffffffffffffffff168473ffffffffffffffffffffffffffffffffffffffff16148061164b575061164a81856112f4565b5b8061168957508373ffffffffffffffffffffffffffffffffffffffff1661167184610694565b73ffffffffffffffffffffffffffffffffffffffff16145b91505092915050565b8273ffffffffffffffffffffffffffffffffffffffff166116b282610e3d565b73ffffffffffffffffffffffffffffffffffffffff1614611708576040517f08c379a00000000000000000000000000000000000000000000000000000000081526004016116ff9061331a565b60405180910390fd5b600073ffffffffffffffffffffffffffffffffffffffff168273ffffffffffffffffffffffffffffffffffffffff1603611777576040517f08c379a000000000000000000000000000000000000000000000000000000000815260040161176e906133ac565b60405180910390fd5b6117848383836001611e61565b8273ffffffffffffffffffffffffffffffffffffffff166117a482610e3d565b73ffffffffffffffffffffffffffffffffffffffff16146117fa576040517f08c379a00000000000000000000000000000000000000000000000000000000081526004016117f19061331a565b60405180910390fd5b6004600082815260200190815260200160002060006101000a81549073ffffffffffffffffffffffffffffffffffffffff02191690556001600360008573ffffffffffffffffffffffffffffffffffffffff1673ffffffffffffffffffffffffffffffffffffffff168152602001908152602001600020600082825403925050819055506001600360008473ffffffffffffffffffffffffffffffffffffffff1673ffffffffffffffffffffffffffffffffffffffff16815260200190815260200160002060008282540192505081905550816002600083815260200190815260200160002060006101000a81548173ffffffffffffffffffffffffffffffffffffffff021916908373ffffffffffffffffffffffffffffffffffffffff160217905550808273ffffffffffffffffffffffffffffffffffffffff168473ffffffffffffffffffffffffffffffffffffffff167fddf252ad1be2c89b69c2b068fc378daa952ba7f163c4a11628f55a4df523b3ef60405160405180910390a46119868383836001611f87565b505050565b61199361153c565b73ffffffffffffffffffffffffffffffffffffffff166119b1610f8e565b73ffffffffffffffffffffffffffffffffffffffff1614611a07576040517f08c379a00000000000000000000000000000000000000000000000000000000081526004016119fe90613418565b60405180910390fd5b565b60008183611a179190613467565b905092915050565b60008183611a2d91906134d8565b905092915050565b60006002600083815260200190815260200160002060009054906101000a900473ffffffffffffffffffffffffffffffffffffffff169050919050565b6000600760009054906101000a900473ffffffffffffffffffffffffffffffffffffffff16905081600760006101000a81548173ffffffffffffffffffffffffffffffffffffffff021916908373ffffffffffffffffffffffffffffffffffffffff1602179055508173ffffffffffffffffffffffffffffffffffffffff168173ffffffffffffffffffffffffffffffffffffffff167f8be0079c531659141344cd1fd0a4f28419497f9722a3daafe3b4186f6b6457e060405160405180910390a35050565b8173ffffffffffffffffffffffffffffffffffffffff168373ffffffffffffffffffffffffffffffffffffffff1603611ba6576040517f08c379a0000000000000000000000000000000000000000000000000000000008152600401611b9d90613555565b60405180910390fd5b80600560008573ffffffffffffffffffffffffffffffffffffffff1673ffffffffffffffffffffffffffffffffffffffff16815260200190815260200160002060008473ffffffffffffffffffffffffffffffffffffffff1673ffffffffffffffffffffffffffffffffffffffff16815260200190815260200160002060006101000a81548160ff0219169083151502179055508173ffffffffffffffffffffffffffffffffffffffff168373ffffffffffffffffffffffffffffffffffffffff167f17307eab39ab6107e8899845ad3d59bd9653f200f220920489ca2b5937696c3183604051611c9791906126b8565b60405180910390a3505050565b611caf848484611692565b611cbb84848484611f8d565b611cfa576040517f08c379a0000000000000000000000000000000000000000000000000000000008152600401611cf1906135e7565b60405180910390fd5b50505050565b606060405180602001604052806000815250905090565b6060611d22826114f1565b6000611d2c611d00565b90506000815111611d4c5760405180602001604052806000815250611d77565b80611d5684612114565b604051602001611d679291906131a6565b6040516020818303038152906040525b915050919050565b611d998282604051806020016040528060008152506121e2565b5050565b611da682611e20565b611de5576040517f08c379a0000000000000000000000000000000000000000000000000000000008152600401611ddc90613679565b60405180910390fd5b80600660008481526020019081526020016000209081611e05919061383b565b505050565b6001816000016000828254019250508190555050565b60008073ffffffffffffffffffffffffffffffffffffffff16611e4283611a35565b73ffffffffffffffffffffffffffffffffffffffff1614159050919050565b6001811115611f8157600073ffffffffffffffffffffffffffffffffffffffff168473ffffffffffffffffffffffffffffffffffffffff1614611ef55780600360008673ffffffffffffffffffffffffffffffffffffffff1673ffffffffffffffffffffffffffffffffffffffff1681526020019081526020016000206000828254611eed919061390d565b925050819055505b600073ffffffffffffffffffffffffffffffffffffffff168373ffffffffffffffffffffffffffffffffffffffff1614611f805780600360008573ffffffffffffffffffffffffffffffffffffffff1673ffffffffffffffffffffffffffffffffffffffff1681526020019081526020016000206000828254611f789190613941565b925050819055505b5b50505050565b50505050565b6000611fae8473ffffffffffffffffffffffffffffffffffffffff1661223d565b15612107578373ffffffffffffffffffffffffffffffffffffffff1663150b7a02611fd761153c565b8786866040518563ffffffff1660e01b8152600401611ff994939291906139ca565b6020604051808303816000875af192505050801561203557506040513d601f19601f820116820180604052508101906120329190613a2b565b60015b6120b7573d8060008114612065576040519150601f19603f3d011682016040523d82523d6000602084013e61206a565b606091505b5060008151036120af576040517f08c379a00000000000000000000000000000000000000000000000000000000081526004016120a6906135e7565b60405180910390fd5b805181602001fd5b63150b7a0260e01b7bffffffffffffffffffffffffffffffffffffffffffffffffffffffff1916817bffffffffffffffffffffffffffffffffffffffffffffffffffffffff19161491505061210c565b600190505b949350505050565b60606000600161212384612260565b01905060008167ffffffffffffffff811115612142576121416129dc565b5b6040519080825280601f01601f1916602001820160405280156121745781602001600182028036833780820191505090505b509050600082602001820190505b6001156121d7578080600190039150507f3031323334353637383961626364656600000000000000000000000000000000600a86061a8153600a85816121cb576121ca6134a9565b5b04945060008503612182575b819350505050919050565b6121ec83836123b3565b6121f96000848484611f8d565b612238576040517f08c379a000000000000000000000000000000000000000000000000000000000815260040161222f906135e7565b60405180910390fd5b505050565b6000808273ffffffffffffffffffffffffffffffffffffffff163b119050919050565b600080600090507a184f03e93ff9f4daa797ed6e38ed64bf6a1f01000000000000000083106122be577a184f03e93ff9f4daa797ed6e38ed64bf6a1f01000000000000000083816122b4576122b36134a9565b5b0492506040810190505b6d04ee2d6d415b85acef810000000083106122fb576d04ee2d6d415b85acef810000000083816122f1576122f06134a9565b5b0492506020810190505b662386f26fc10000831061232a57662386f26fc1000083816123205761231f6134a9565b5b0492506010810190505b6305f5e1008310612353576305f5e1008381612349576123486134a9565b5b0492506008810190505b612710831061237857612710838161236e5761236d6134a9565b5b0492506004810190505b6064831061239b5760648381612391576123906134a9565b5b0492506002810190505b600a83106123aa576001810190505b80915050919050565b600073ffffffffffffffffffffffffffffffffffffffff168273ffffffffffffffffffffffffffffffffffffffff1603612422576040517f08c379a000000000000000000000000000000000000000000000000000000000815260040161241990613aa4565b60405180910390fd5b61242b81611e20565b1561246b576040517f08c379a000000000000000000000000000000000000000000000000000000000815260040161246290613b10565b60405180910390fd5b612479600083836001611e61565b61248281611e20565b156124c2576040517f08c379a00000000000000000000000000000000000000000000000000000000081526004016124b990613b10565b60405180910390fd5b6001600360008473ffffffffffffffffffffffffffffffffffffffff1673ffffffffffffffffffffffffffffffffffffffff16815260200190815260200160002060008282540192505081905550816002600083815260200190815260200160002060006101000a81548173ffffffffffffffffffffffffffffffffffffffff021916908373ffffffffffffffffffffffffffffffffffffffff160217905550808273ffffffffffffffffffffffffffffffffffffffff16600073ffffffffffffffffffffffffffffffffffffffff167fddf252ad1be2c89b69c2b068fc378daa952ba7f163c4a11628f55a4df523b3ef60405160405180910390a46125cc600083836001611f87565b5050565b6000819050919050565b6125e3816125d0565b82525050565b60006020820190506125fe60008301846125da565b92915050565b6000604051905090565b600080fd5b600080fd5b60007fffffffff0000000000000000000000000000000000000000000000000000000082169050919050565b61264d81612618565b811461265857600080fd5b50565b60008135905061266a81612644565b92915050565b6000602082840312156126865761268561260e565b5b60006126948482850161265b565b91505092915050565b60008115159050919050565b6126b28161269d565b82525050565b60006020820190506126cd60008301846126a9565b92915050565b600081519050919050565b600082825260208201905092915050565b60005b8381101561270d5780820151818401526020810190506126f2565b60008484015250505050565b6000601f19601f8301169050919050565b6000612735826126d3565b61273f81856126de565b935061274f8185602086016126ef565b61275881612719565b840191505092915050565b6000602082019050818103600083015261277d818461272a565b905092915050565b61278e816125d0565b811461279957600080fd5b50565b6000813590506127ab81612785565b92915050565b6000602082840312156127c7576127c661260e565b5b60006127d58482850161279c565b91505092915050565b600073ffffffffffffffffffffffffffffffffffffffff82169050919050565b6000612809826127de565b9050919050565b612819816127fe565b82525050565b60006020820190506128346000830184612810565b92915050565b612843816127fe565b811461284e57600080fd5b50565b6000813590506128608161283a565b92915050565b6000806040838503121561287d5761287c61260e565b5b600061288b85828601612851565b925050602061289c8582860161279c565b9150509250929050565b6000806000606084860312156128bf576128be61260e565b5b60006128cd86828701612851565b93505060206128de86828701612851565b92505060406128ef8682870161279c565b9150509250925092565b60006020828403121561290f5761290e61260e565b5b600061291d84828501612851565b91505092915050565b6000806040838503121561293d5761293c61260e565b5b600061294b8582860161279c565b925050602061295c8582860161279c565b9150509250929050565b61296f8161269d565b811461297a57600080fd5b50565b60008135905061298c81612966565b92915050565b600080604083850312156129a9576129a861260e565b5b60006129b785828601612851565b92505060206129c88582860161297d565b9150509250929050565b600080fd5b600080fd5b7f4e487b7100000000000000000000000000000000000000000000000000000000600052604160045260246000fd5b612a1482612719565b810181811067ffffffffffffffff82111715612a3357612a326129dc565b5b80604052505050565b6000612a46612604565b9050612a528282612a0b565b919050565b600067ffffffffffffffff821115612a7257612a716129dc565b5b612a7b82612719565b9050602081019050919050565b82818337600083830152505050565b6000612aaa612aa584612a57565b612a3c565b905082815260208101848484011115612ac657612ac56129d7565b5b612ad1848285612a88565b509392505050565b600082601f830112612aee57612aed6129d2565b5b8135612afe848260208601612a97565b91505092915050565b60008060008060808587031215612b2157612b2061260e565b5b6000612b2f87828801612851565b9450506020612b4087828801612851565b9350506040612b518782880161279c565b925050606085013567ffffffffffffffff811115612b7257612b71612613565b5b612b7e87828801612ad9565b91505092959194509250565b60008060408385031215612ba157612ba061260e565b5b6000612baf85828601612851565b9250506020612bc085828601612851565b9150509250929050565b600067ffffffffffffffff821115612be557612be46129dc565b5b612bee82612719565b9050602081019050919050565b6000612c0e612c0984612bca565b612a3c565b905082815260208101848484011115612c2a57612c296129d7565b5b612c35848285612a88565b509392505050565b600082601f830112612c5257612c516129d2565b5b8135612c62848260208601612bfb565b91505092915050565b600060208284031215612c8157612c8061260e565b5b600082013567ffffffffffffffff811115612c9f57612c9e612613565b5b612cab84828501612c3d565b91505092915050565b7f4e487b7100000000000000000000000000000000000000000000000000000000600052602260045260246000fd5b60006002820490506001821680612cfb57607f821691505b602082108103612d0e57612d0d612cb4565b5b50919050565b7f4552433732313a20617070726f76616c20746f2063757272656e74206f776e6560008201527f7200000000000000000000000000000000000000000000000000000000000000602082015250565b6000612d706021836126de565b9150612d7b82612d14565b604082019050919050565b60006020820190508181036000830152612d9f81612d63565b9050919050565b7f4552433732313a20617070726f76652063616c6c6572206973206e6f7420746f60008201527f6b656e206f776e6572206f7220617070726f76656420666f7220616c6c000000602082015250565b6000612e02603d836126de565b9150612e0d82612da6565b604082019050919050565b60006020820190508181036000830152612e3181612df5565b9050919050565b7f4552433732313a2063616c6c6572206973206e6f7420746f6b656e206f776e6560008201527f72206f7220617070726f76656400000000000000000000000000000000000000602082015250565b6000612e94602d836126de565b9150612e9f82612e38565b604082019050919050565b60006020820190508181036000830152612ec381612e87565b9050919050565b50565b6000612eda6000836126de565b9150612ee582612eca565b600082019050919050565b6000819050919050565b6000819050919050565b6000612f1f612f1a612f1584612ef0565b612efa565b6125d0565b9050919050565b612f2f81612f04565b82525050565b6000608082019050612f4a60008301866125da565b612f576020830185612810565b8181036040830152612f6881612ecd565b9050612f776060830184612f26565b949350505050565b7f4e4654204d61726b65743a20496e636f72726563742070726963650000000000600082015250565b6000612fb5601b836126de565b9150612fc082612f7f565b602082019050919050565b60006020820190508181036000830152612fe481612fa8565b9050919050565b60006060820190506130006000830186612810565b61300d6020830185612810565b61301a60408301846125da565b949350505050565b7f4552433732313a20696e76616c696420746f6b656e2049440000000000000000600082015250565b60006130586018836126de565b915061306382613022565b602082019050919050565b600060208201905081810360008301526130878161304b565b9050919050565b7f4552433732313a2061646472657373207a65726f206973206e6f74206120766160008201527f6c6964206f776e65720000000000000000000000000000000000000000000000602082015250565b60006130ea6029836126de565b91506130f58261308e565b604082019050919050565b60006020820190508181036000830152613119816130dd565b9050919050565b600060808201905061313560008301866125da565b6131426020830185612810565b818103604083015261315381612ecd565b905061316260608301846125da565b949350505050565b600081905092915050565b6000613180826126d3565b61318a818561316a565b935061319a8185602086016126ef565b80840191505092915050565b60006131b28285613175565b91506131be8284613175565b91508190509392505050565b7f4f776e61626c653a206e6577206f776e657220697320746865207a65726f206160008201527f6464726573730000000000000000000000000000000000000000000000000000602082015250565b60006132266026836126de565b9150613231826131ca565b604082019050919050565b6000602082019050818103600083015261325581613219565b9050919050565b600060808201905061327160008301876125da565b61327e6020830186612810565b8181036040830152613290818561272a565b905061329f6060830184612f26565b95945050505050565b7f4552433732313a207472616e736665722066726f6d20696e636f72726563742060008201527f6f776e6572000000000000000000000000000000000000000000000000000000602082015250565b60006133046025836126de565b915061330f826132a8565b604082019050919050565b60006020820190508181036000830152613333816132f7565b9050919050565b7f4552433732313a207472616e7366657220746f20746865207a65726f2061646460008201527f7265737300000000000000000000000000000000000000000000000000000000602082015250565b60006133966024836126de565b91506133a18261333a565b604082019050919050565b600060208201905081810360008301526133c581613389565b9050919050565b7f4f776e61626c653a2063616c6c6572206973206e6f7420746865206f776e6572600082015250565b60006134026020836126de565b915061340d826133cc565b602082019050919050565b60006020820190508181036000830152613431816133f5565b9050919050565b7f4e487b7100000000000000000000000000000000000000000000000000000000600052601160045260246000fd5b6000613472826125d0565b915061347d836125d0565b925082820261348b816125d0565b915082820484148315176134a2576134a1613438565b5b5092915050565b7f4e487b7100000000000000000000000000000000000000000000000000000000600052601260045260246000fd5b60006134e3826125d0565b91506134ee836125d0565b9250826134fe576134fd6134a9565b5b828204905092915050565b7f4552433732313a20617070726f766520746f2063616c6c657200000000000000600082015250565b600061353f6019836126de565b915061354a82613509565b602082019050919050565b6000602082019050818103600083015261356e81613532565b9050919050565b7f4552433732313a207472616e7366657220746f206e6f6e20455243373231526560008201527f63656976657220696d706c656d656e7465720000000000000000000000000000602082015250565b60006135d16032836126de565b91506135dc82613575565b604082019050919050565b60006020820190508181036000830152613600816135c4565b9050919050565b7f45524337323155524953746f726167653a2055524920736574206f66206e6f6e60008201527f6578697374656e7420746f6b656e000000000000000000000000000000000000602082015250565b6000613663602e836126de565b915061366e82613607565b604082019050919050565b6000602082019050818103600083015261369281613656565b9050919050565b60008190508160005260206000209050919050565b60006020601f8301049050919050565b600082821b905092915050565b6000600883026136fb7fffffffffffffffffffffffffffffffffffffffffffffffffffffffffffffffff826136be565b61370586836136be565b95508019841693508086168417925050509392505050565b600061373861373361372e846125d0565b612efa565b6125d0565b9050919050565b6000819050919050565b6137528361371d565b61376661375e8261373f565b8484546136cb565b825550505050565b600090565b61377b61376e565b613786818484613749565b505050565b5b818110156137aa5761379f600082613773565b60018101905061378c565b5050565b601f8211156137ef576137c081613699565b6137c9846136ae565b810160208510156137d8578190505b6137ec6137e4856136ae565b83018261378b565b50505b505050565b600082821c905092915050565b6000613812600019846008026137f4565b1980831691505092915050565b600061382b8383613801565b9150826002028217905092915050565b613844826126d3565b67ffffffffffffffff81111561385d5761385c6129dc565b5b6138678254612ce3565b6138728282856137ae565b600060209050601f8311600181146138a55760008415613893578287015190505b61389d858261381f565b865550613905565b601f1984166138b386613699565b60005b828110156138db578489015182556001820191506020850194506020810190506138b6565b868310156138f857848901516138f4601f891682613801565b8355505b6001600288020188555050505b505050505050565b6000613918826125d0565b9150613923836125d0565b925082820390508181111561393b5761393a613438565b5b92915050565b600061394c826125d0565b9150613957836125d0565b925082820190508082111561396f5761396e613438565b5b92915050565b600081519050919050565b600082825260208201905092915050565b600061399c82613975565b6139a68185613980565b93506139b68185602086016126ef565b6139bf81612719565b840191505092915050565b60006080820190506139df6000830187612810565b6139ec6020830186612810565b6139f960408301856125da565b8181036060830152613a0b8184613991565b905095945050505050565b600081519050613a2581612644565b92915050565b600060208284031215613a4157613a4061260e565b5b6000613a4f84828501613a16565b91505092915050565b7f4552433732313a206d696e7420746f20746865207a65726f2061646472657373600082015250565b6000613a8e6020836126de565b9150613a9982613a58565b602082019050919050565b60006020820190508181036000830152613abd81613a81565b9050919050565b7f4552433732313a20746f6b656e20616c7265616479206d696e74656400000000600082015250565b6000613afa601c836126de565b9150613b0582613ac4565b602082019050919050565b60006020820190508181036000830152613b2981613aed565b905091905056fea26469706673582212203e4a50a9ac7986b86b420d801e32846e582d9395ea50c425b21be97de1e2325764736f6c63430008110033",
  "devdoc": {
    "kind": "dev",
    "methods": {
      "approve(address,uint256)": {
        "details": "See {IERC721-approve}."
      },
      "balanceOf(address)": {
        "details": "See {IERC721-balanceOf}."
      },
      "buyNFT(uint256)": {
        "params": {
          "tokenId": "unique id for the required NFT."
        }
      },
      "getApproved(uint256)": {
        "details": "See {IERC721-getApproved}."
      },
      "isApprovedForAll(address,address)": {
        "details": "See {IERC721-isApprovedForAll}."
      },
      "listNFT(uint256,uint256)": {
        "params": {
          "price": "price of the NFT",
          "tokenId": "gives a unique tokenId for an NFT"
        }
      },
      "name()": {
        "details": "See {IERC721Metadata-name}."
      },
      "owner()": {
        "details": "Returns the address of the current owner."
      },
      "ownerOf(uint256)": {
        "details": "See {IERC721-ownerOf}."
      },
      "renounceOwnership()": {
        "details": "Leaves the contract without owner. It will not be possible to call `onlyOwner` functions anymore. Can only be called by the current owner. NOTE: Renouncing ownership will leave the contract without an owner, thereby removing any functionality that is only available to the owner."
      },
      "safeTransferFrom(address,address,uint256)": {
        "details": "See {IERC721-safeTransferFrom}."
      },
      "safeTransferFrom(address,address,uint256,bytes)": {
        "details": "See {IERC721-safeTransferFrom}."
      },
      "setApprovalForAll(address,bool)": {
        "details": "See {IERC721-setApprovalForAll}."
      },
      "supportsInterface(bytes4)": {
        "details": "See {IERC165-supportsInterface}."
      },
      "symbol()": {
        "details": "See {IERC721Metadata-symbol}."
      },
      "tokenURI(uint256)": {
        "details": "See {IERC721Metadata-tokenURI}."
      },
      "transferFrom(address,address,uint256)": {
        "details": "See {IERC721-transferFrom}."
      },
      "transferOwnership(address)": {
        "details": "Transfers ownership of the contract to a new account (`newOwner`). Can only be called by the current owner."
      }
    },
    "version": 1
  },
  "userdoc": {
    "events": {
      "NftTransfer(uint256,address,string,uint256)": {
        "notice": "Events - useful for the frontend of the app."
      }
    },
    "kind": "user",
    "methods": {
      "buyNFT(uint256)": {
        "notice": "Buy an NFT 2 Conditions should be met - the NFT should be listed and the amount recieved should be equal to the listing price of the NFT."
      },
      "cancelListing(uint256)": {
        "notice": "Cancel the listing of an NFT 2 conditions - the NFT should be listed and the owner should be the one who calls this function"
      },
      "listNFT(uint256,uint256)": {
        "notice": "List an NFT"
      }
    },
    "version": 1
  },
  "storageLayout": {
    "storage": [
      {
        "astId": 138,
        "contract": "contracts/NFTMarket.sol:NFTMarket",
        "label": "_name",
        "offset": 0,
        "slot": "0",
        "type": "t_string_storage"
      },
      {
        "astId": 140,
        "contract": "contracts/NFTMarket.sol:NFTMarket",
        "label": "_symbol",
        "offset": 0,
        "slot": "1",
        "type": "t_string_storage"
      },
      {
        "astId": 144,
        "contract": "contracts/NFTMarket.sol:NFTMarket",
        "label": "_owners",
        "offset": 0,
        "slot": "2",
        "type": "t_mapping(t_uint256,t_address)"
      },
      {
        "astId": 148,
        "contract": "contracts/NFTMarket.sol:NFTMarket",
        "label": "_balances",
        "offset": 0,
        "slot": "3",
        "type": "t_mapping(t_address,t_uint256)"
      },
      {
        "astId": 152,
        "contract": "contracts/NFTMarket.sol:NFTMarket",
        "label": "_tokenApprovals",
        "offset": 0,
        "slot": "4",
        "type": "t_mapping(t_uint256,t_address)"
      },
      {
        "astId": 158,
        "contract": "contracts/NFTMarket.sol:NFTMarket",
        "label": "_operatorApprovals",
        "offset": 0,
        "slot": "5",
        "type": "t_mapping(t_address,t_mapping(t_address,t_bool))"
      },
      {
        "astId": 1204,
        "contract": "contracts/NFTMarket.sol:NFTMarket",
        "label": "_tokenURIs",
        "offset": 0,
        "slot": "6",
        "type": "t_mapping(t_uint256,t_string_storage)"
      },
      {
        "astId": 7,
        "contract": "contracts/NFTMarket.sol:NFTMarket",
        "label": "_owner",
        "offset": 0,
        "slot": "7",
        "type": "t_address"
      },
      {
        "astId": 3185,
        "contract": "contracts/NFTMarket.sol:NFTMarket",
        "label": "_tokenIds",
        "offset": 0,
        "slot": "8",
        "type": "t_struct(Counter)1701_storage"
      },
      {
        "astId": 3206,
        "contract": "contracts/NFTMarket.sol:NFTMarket",
        "label": "s_listings",
        "offset": 0,
        "slot": "9",
        "type": "t_mapping(t_uint256,t_struct(Listing)3201_storage)"
      }
    ],
    "types": {
      "t_address": {
        "encoding": "inplace",
        "label": "address",
        "numberOfBytes": "20"
      },
      "t_bool": {
        "encoding": "inplace",
        "label": "bool",
        "numberOfBytes": "1"
      },
      "t_mapping(t_address,t_bool)": {
        "encoding": "mapping",
        "key": "t_address",
        "label": "mapping(address => bool)",
        "numberOfBytes": "32",
        "value": "t_bool"
      },
      "t_mapping(t_address,t_mapping(t_address,t_bool))": {
        "encoding": "mapping",
        "key": "t_address",
        "label": "mapping(address => mapping(address => bool))",
        "numberOfBytes": "32",
        "value": "t_mapping(t_address,t_bool)"
      },
      "t_mapping(t_address,t_uint256)": {
        "encoding": "mapping",
        "key": "t_address",
        "label": "mapping(address => uint256)",
        "numberOfBytes": "32",
        "value": "t_uint256"
      },
      "t_mapping(t_uint256,t_address)": {
        "encoding": "mapping",
        "key": "t_uint256",
        "label": "mapping(uint256 => address)",
        "numberOfBytes": "32",
        "value": "t_address"
      },
      "t_mapping(t_uint256,t_string_storage)": {
        "encoding": "mapping",
        "key": "t_uint256",
        "label": "mapping(uint256 => string)",
        "numberOfBytes": "32",
        "value": "t_string_storage"
      },
      "t_mapping(t_uint256,t_struct(Listing)3201_storage)": {
        "encoding": "mapping",
        "key": "t_uint256",
        "label": "mapping(uint256 => struct NFTMarket.Listing)",
        "numberOfBytes": "32",
        "value": "t_struct(Listing)3201_storage"
      },
      "t_string_storage": {
        "encoding": "bytes",
        "label": "string",
        "numberOfBytes": "32"
      },
      "t_struct(Counter)1701_storage": {
        "encoding": "inplace",
        "label": "struct Counters.Counter",
        "members": [
          {
            "astId": 1700,
            "contract": "contracts/NFTMarket.sol:NFTMarket",
            "label": "_value",
            "offset": 0,
            "slot": "0",
            "type": "t_uint256"
          }
        ],
        "numberOfBytes": "32"
      },
      "t_struct(Listing)3201_storage": {
        "encoding": "inplace",
        "label": "struct NFTMarket.Listing",
        "members": [
          {
            "astId": 3198,
            "contract": "contracts/NFTMarket.sol:NFTMarket",
            "label": "price",
            "offset": 0,
            "slot": "0",
            "type": "t_uint256"
          },
          {
            "astId": 3200,
            "contract": "contracts/NFTMarket.sol:NFTMarket",
            "label": "seller",
            "offset": 0,
            "slot": "1",
            "type": "t_address"
          }
        ],
        "numberOfBytes": "64"
      },
      "t_uint256": {
        "encoding": "inplace",
        "label": "uint256",
        "numberOfBytes": "32"
      }
    }
  }
}