{
  "address": "0x4A13fd1Bb9e3d9d5841CF1c24Dc8d3Bc397FD383",
  "abi": [
    {
      "inputs": [],
      "stateMutability": "nonpayable",
      "type": "constructor"
    },
    {
      "inputs": [],
      "name": "NFTMarket__InvalidPrice",
      "type": "error"
    },
    {
      "inputs": [],
      "name": "NFTMarket__NFTnotListed",
      "type": "error"
    },
    {
      "inputs": [],
      "name": "NFTMarket__NotOwner",
      "type": "error"
    },
    {
      "inputs": [],
      "name": "NFTMarket__ZeroBalance",
      "type": "error"
    },
    {
      "anonymous": false,
      "inputs": [
        {
          "indexed": true,
          "internalType": "address",
          "name": "owner",
          "type": "address"
        },
        {
          "indexed": true,
          "internalType": "address",
          "name": "approved",
          "type": "address"
        },
        {
          "indexed": true,
          "internalType": "uint256",
          "name": "tokenId",
          "type": "uint256"
        }
      ],
      "name": "Approval",
      "type": "event"
    },
    {
      "anonymous": false,
      "inputs": [
        {
          "indexed": true,
          "internalType": "address",
          "name": "owner",
          "type": "address"
        },
        {
          "indexed": true,
          "internalType": "address",
          "name": "operator",
          "type": "address"
        },
        {
          "indexed": false,
          "internalType": "bool",
          "name": "approved",
          "type": "bool"
        }
      ],
      "name": "ApprovalForAll",
      "type": "event"
    },
    {
      "anonymous": false,
      "inputs": [
        {
          "indexed": false,
          "internalType": "uint256",
          "name": "tokenId",
          "type": "uint256"
        },
        {
          "indexed": false,
          "internalType": "address",
          "name": "from",
          "type": "address"
        },
        {
          "indexed": false,
          "internalType": "address",
          "name": "to",
          "type": "address"
        },
        {
          "indexed": false,
          "internalType": "string",
          "name": "tokenUri",
          "type": "string"
        },
        {
          "indexed": false,
          "internalType": "uint256",
          "name": "price",
          "type": "uint256"
        }
      ],
      "name": "NftTransfer",
      "type": "event"
    },
    {
      "anonymous": false,
      "inputs": [
        {
          "indexed": true,
          "internalType": "address",
          "name": "previousOwner",
          "type": "address"
        },
        {
          "indexed": true,
          "internalType": "address",
          "name": "newOwner",
          "type": "address"
        }
      ],
      "name": "OwnershipTransferred",
      "type": "event"
    },
    {
      "anonymous": false,
      "inputs": [
        {
          "indexed": true,
          "internalType": "address",
          "name": "from",
          "type": "address"
        },
        {
          "indexed": true,
          "internalType": "address",
          "name": "to",
          "type": "address"
        },
        {
          "indexed": true,
          "internalType": "uint256",
          "name": "tokenId",
          "type": "uint256"
        }
      ],
      "name": "Transfer",
      "type": "event"
    },
    {
      "inputs": [
        {
          "internalType": "address",
          "name": "to",
          "type": "address"
        },
        {
          "internalType": "uint256",
          "name": "tokenId",
          "type": "uint256"
        }
      ],
      "name": "approve",
      "outputs": [],
      "stateMutability": "nonpayable",
      "type": "function"
    },
    {
      "inputs": [
        {
          "internalType": "address",
          "name": "owner",
          "type": "address"
        }
      ],
      "name": "balanceOf",
      "outputs": [
        {
          "internalType": "uint256",
          "name": "",
          "type": "uint256"
        }
      ],
      "stateMutability": "view",
      "type": "function"
    },
    {
      "inputs": [
        {
          "internalType": "uint256",
          "name": "tokenId",
          "type": "uint256"
        }
      ],
      "name": "buyNFT",
      "outputs": [],
      "stateMutability": "payable",
      "type": "function"
    },
    {
      "inputs": [
        {
          "internalType": "uint256",
          "name": "tokenId",
          "type": "uint256"
        }
      ],
      "name": "cancelListing",
      "outputs": [],
      "stateMutability": "nonpayable",
      "type": "function"
    },
    {
      "inputs": [
        {
          "internalType": "uint256",
          "name": "tokenId",
          "type": "uint256"
        }
      ],
      "name": "getApproved",
      "outputs": [
        {
          "internalType": "address",
          "name": "",
          "type": "address"
        }
      ],
      "stateMutability": "view",
      "type": "function"
    },
    {
      "inputs": [],
      "name": "getTokenId",
      "outputs": [
        {
          "internalType": "uint256",
          "name": "",
          "type": "uint256"
        }
      ],
      "stateMutability": "view",
      "type": "function"
    },
    {
      "inputs": [
        {
          "internalType": "address",
          "name": "owner",
          "type": "address"
        },
        {
          "internalType": "address",
          "name": "operator",
          "type": "address"
        }
      ],
      "name": "isApprovedForAll",
      "outputs": [
        {
          "internalType": "bool",
          "name": "",
          "type": "bool"
        }
      ],
      "stateMutability": "view",
      "type": "function"
    },
    {
      "inputs": [
        {
          "internalType": "uint256",
          "name": "tokenId",
          "type": "uint256"
        },
        {
          "internalType": "uint256",
          "name": "price",
          "type": "uint256"
        }
      ],
      "name": "listNFT",
      "outputs": [],
      "stateMutability": "nonpayable",
      "type": "function"
    },
    {
      "inputs": [
        {
          "internalType": "string",
          "name": "tokenURI",
          "type": "string"
        }
      ],
      "name": "mintNFT",
      "outputs": [],
      "stateMutability": "nonpayable",
      "type": "function"
    },
    {
      "inputs": [],
      "name": "name",
      "outputs": [
        {
          "internalType": "string",
          "name": "",
          "type": "string"
        }
      ],
      "stateMutability": "view",
      "type": "function"
    },
    {
      "inputs": [],
      "name": "owner",
      "outputs": [
        {
          "internalType": "address",
          "name": "",
          "type": "address"
        }
      ],
      "stateMutability": "view",
      "type": "function"
    },
    {
      "inputs": [
        {
          "internalType": "uint256",
          "name": "tokenId",
          "type": "uint256"
        }
      ],
      "name": "ownerOf",
      "outputs": [
        {
          "internalType": "address",
          "name": "",
          "type": "address"
        }
      ],
      "stateMutability": "view",
      "type": "function"
    },
    {
      "inputs": [],
      "name": "renounceOwnership",
      "outputs": [],
      "stateMutability": "nonpayable",
      "type": "function"
    },
    {
      "inputs": [
        {
          "internalType": "address",
          "name": "from",
          "type": "address"
        },
        {
          "internalType": "address",
          "name": "to",
          "type": "address"
        },
        {
          "internalType": "uint256",
          "name": "tokenId",
          "type": "uint256"
        }
      ],
      "name": "safeTransferFrom",
      "outputs": [],
      "stateMutability": "nonpayable",
      "type": "function"
    },
    {
      "inputs": [
        {
          "internalType": "address",
          "name": "from",
          "type": "address"
        },
        {
          "internalType": "address",
          "name": "to",
          "type": "address"
        },
        {
          "internalType": "uint256",
          "name": "tokenId",
          "type": "uint256"
        },
        {
          "internalType": "bytes",
          "name": "data",
          "type": "bytes"
        }
      ],
      "name": "safeTransferFrom",
      "outputs": [],
      "stateMutability": "nonpayable",
      "type": "function"
    },
    {
      "inputs": [
        {
          "internalType": "address",
          "name": "operator",
          "type": "address"
        },
        {
          "internalType": "bool",
          "name": "approved",
          "type": "bool"
        }
      ],
      "name": "setApprovalForAll",
      "outputs": [],
      "stateMutability": "nonpayable",
      "type": "function"
    },
    {
      "inputs": [
        {
          "internalType": "bytes4",
          "name": "interfaceId",
          "type": "bytes4"
        }
      ],
      "name": "supportsInterface",
      "outputs": [
        {
          "internalType": "bool",
          "name": "",
          "type": "bool"
        }
      ],
      "stateMutability": "view",
      "type": "function"
    },
    {
      "inputs": [],
      "name": "symbol",
      "outputs": [
        {
          "internalType": "string",
          "name": "",
          "type": "string"
        }
      ],
      "stateMutability": "view",
      "type": "function"
    },
    {
      "inputs": [
        {
          "internalType": "uint256",
          "name": "tokenId",
          "type": "uint256"
        }
      ],
      "name": "tokenURI",
      "outputs": [
        {
          "internalType": "string",
          "name": "",
          "type": "string"
        }
      ],
      "stateMutability": "view",
      "type": "function"
    },
    {
      "inputs": [
        {
          "internalType": "address",
          "name": "from",
          "type": "address"
        },
        {
          "internalType": "address",
          "name": "to",
          "type": "address"
        },
        {
          "internalType": "uint256",
          "name": "tokenId",
          "type": "uint256"
        }
      ],
      "name": "transferFrom",
      "outputs": [],
      "stateMutability": "nonpayable",
      "type": "function"
    },
    {
      "inputs": [
        {
          "internalType": "address",
          "name": "newOwner",
          "type": "address"
        }
      ],
      "name": "transferOwnership",
      "outputs": [],
      "stateMutability": "nonpayable",
      "type": "function"
    },
    {
      "inputs": [],
      "name": "withdrawFunds",
      "outputs": [],
      "stateMutability": "nonpayable",
      "type": "function"
    }
  ],
  "transactionHash": "0x7469a3a118d7a270d4cb492e0daa609534ae70928dd66b9bfe97f9be822d4be6",
  "args": [],
  "numDeployments": 2,
  "solcInputHash": "f6ba9485606835d90ccfc4314ba710cf",
  "bytecode": "0x60806040523480156200001157600080fd5b506040518060400160405280600a81526020017f4e4654204d61726b6574000000000000000000000000000000000000000000008152506040518060400160405280600481526020017f4e46544d0000000000000000000000000000000000000000000000000000000081525081600090816200008f919062000412565b508060019081620000a1919062000412565b505050620000c4620000b8620000ca60201b60201c565b620000d260201b60201c565b620004f9565b600033905090565b6000600760009054906101000a900473ffffffffffffffffffffffffffffffffffffffff16905081600760006101000a81548173ffffffffffffffffffffffffffffffffffffffff021916908373ffffffffffffffffffffffffffffffffffffffff1602179055508173ffffffffffffffffffffffffffffffffffffffff168173ffffffffffffffffffffffffffffffffffffffff167f8be0079c531659141344cd1fd0a4f28419497f9722a3daafe3b4186f6b6457e060405160405180910390a35050565b600081519050919050565b7f4e487b7100000000000000000000000000000000000000000000000000000000600052604160045260246000fd5b7f4e487b7100000000000000000000000000000000000000000000000000000000600052602260045260246000fd5b600060028204905060018216806200021a57607f821691505b60208210810362000230576200022f620001d2565b5b50919050565b60008190508160005260206000209050919050565b60006020601f8301049050919050565b600082821b905092915050565b6000600883026200029a7fffffffffffffffffffffffffffffffffffffffffffffffffffffffffffffffff826200025b565b620002a686836200025b565b95508019841693508086168417925050509392505050565b6000819050919050565b6000819050919050565b6000620002f3620002ed620002e784620002be565b620002c8565b620002be565b9050919050565b6000819050919050565b6200030f83620002d2565b620003276200031e82620002fa565b84845462000268565b825550505050565b600090565b6200033e6200032f565b6200034b81848462000304565b505050565b5b8181101562000373576200036760008262000334565b60018101905062000351565b5050565b601f821115620003c2576200038c8162000236565b62000397846200024b565b81016020851015620003a7578190505b620003bf620003b6856200024b565b83018262000350565b50505b505050565b600082821c905092915050565b6000620003e760001984600802620003c7565b1980831691505092915050565b6000620004028383620003d4565b9150826002028217905092915050565b6200041d8262000198565b67ffffffffffffffff811115620004395762000438620001a3565b5b62000445825462000201565b6200045282828562000377565b600060209050601f8311600181146200048a576000841562000475578287015190505b620004818582620003f4565b865550620004f1565b601f1984166200049a8662000236565b60005b82811015620004c4578489015182556001820191506020850194506020810190506200049d565b86831015620004e45784890151620004e0601f891682620003d4565b8355505b6001600288020188555050505b505050505050565b613b9980620005096000396000f3fe6080604052600436106101355760003560e01c806370a08231116100ab578063a22cb4651161006f578063a22cb465146103f1578063b88d4fde1461041a578063c87b56dd14610443578063e985e9c514610480578063f2fde38b146104bd578063fb37e883146104e657610135565b806370a082311461031e578063715018a61461035b5780638da5cb5b1461037257806394383f141461039d57806395d89b41146103c657610135565b806323b872dd116100fd57806323b872dd1461023357806324600fc31461025c578063305a67a81461027357806342842e0e1461029c57806351ed8288146102c55780636352211e146102e157610135565b8063010a38f51461013a57806301ffc9a71461016557806306fdde03146101a2578063081812fc146101cd578063095ea7b31461020a575b600080fd5b34801561014657600080fd5b5061014f61050f565b60405161015c919061266e565b60405180910390f35b34801561017157600080fd5b5061018c600480360381019061018791906126f5565b610520565b604051610199919061273d565b60405180910390f35b3480156101ae57600080fd5b506101b7610602565b6040516101c491906127e8565b60405180910390f35b3480156101d957600080fd5b506101f460048036038101906101ef9190612836565b610694565b60405161020191906128a4565b60405180910390f35b34801561021657600080fd5b50610231600480360381019061022c91906128eb565b6106da565b005b34801561023f57600080fd5b5061025a6004803603810190610255919061292b565b6107f1565b005b34801561026857600080fd5b50610271610851565b005b34801561027f57600080fd5b5061029a60048036038101906102959190612836565b6108e2565b005b3480156102a857600080fd5b506102c360048036038101906102be919061292b565b610b92565b005b6102df60048036038101906102da9190612836565b610bb2565b005b3480156102ed57600080fd5b5061030860048036038101906103039190612836565b610eb2565b60405161031591906128a4565b60405180910390f35b34801561032a57600080fd5b506103456004803603810190610340919061297e565b610f38565b604051610352919061266e565b60405180910390f35b34801561036757600080fd5b50610370610fef565b005b34801561037e57600080fd5b50610387611003565b60405161039491906128a4565b60405180910390f35b3480156103a957600080fd5b506103c460048036038101906103bf91906129ab565b61102d565b005b3480156103d257600080fd5b506103db611159565b6040516103e891906127e8565b60405180910390f35b3480156103fd57600080fd5b5061041860048036038101906104139190612a17565b6111eb565b005b34801561042657600080fd5b50610441600480360381019061043c9190612b8c565b611201565b005b34801561044f57600080fd5b5061046a60048036038101906104659190612836565b611263565b60405161047791906127e8565b60405180910390f35b34801561048c57600080fd5b506104a760048036038101906104a29190612c0f565b611375565b6040516104b4919061273d565b60405180910390f35b3480156104c957600080fd5b506104e460048036038101906104df919061297e565b611409565b005b3480156104f257600080fd5b5061050d60048036038101906105089190612cf0565b61148c565b005b600061051b60086114fe565b905090565b60007f80ac58cd000000000000000000000000000000000000000000000000000000007bffffffffffffffffffffffffffffffffffffffffffffffffffffffff1916827bffffffffffffffffffffffffffffffffffffffffffffffffffffffff191614806105eb57507f5b5e139f000000000000000000000000000000000000000000000000000000007bffffffffffffffffffffffffffffffffffffffffffffffffffffffff1916827bffffffffffffffffffffffffffffffffffffffffffffffffffffffff1916145b806105fb57506105fa8261150c565b5b9050919050565b60606000805461061190612d68565b80601f016020809104026020016040519081016040528092919081815260200182805461063d90612d68565b801561068a5780601f1061065f5761010080835404028352916020019161068a565b820191906000526020600020905b81548152906001019060200180831161066d57829003601f168201915b5050505050905090565b600061069f82611576565b6004600083815260200190815260200160002060009054906101000a900473ffffffffffffffffffffffffffffffffffffffff169050919050565b60006106e582610eb2565b90508073ffffffffffffffffffffffffffffffffffffffff168373ffffffffffffffffffffffffffffffffffffffff1603610755576040517f08c379a000000000000000000000000000000000000000000000000000000000815260040161074c90612e0b565b60405180910390fd5b8073ffffffffffffffffffffffffffffffffffffffff166107746115c1565b73ffffffffffffffffffffffffffffffffffffffff1614806107a357506107a28161079d6115c1565b611375565b5b6107e2576040517f08c379a00000000000000000000000000000000000000000000000000000000081526004016107d990612e9d565b60405180910390fd5b6107ec83836115c9565b505050565b6108026107fc6115c1565b82611682565b610841576040517f08c379a000000000000000000000000000000000000000000000000000000000815260040161083890612f2f565b60405180910390fd5b61084c838383611717565b505050565b610859611a10565b600047905060008111610898576040517f0f6d691300000000000000000000000000000000000000000000000000000000815260040160405180910390fd5b3373ffffffffffffffffffffffffffffffffffffffff166108fc829081150290604051600060405180830381858888f193505050501580156108de573d6000803e3d6000fd5b5050565b80600060096000838152602001908152602001600020604051806040016040529081600082015481526020016001820160009054906101000a900473ffffffffffffffffffffffffffffffffffffffff1673ffffffffffffffffffffffffffffffffffffffff1673ffffffffffffffffffffffffffffffffffffffff1681525050905060008160000151116109a3576040517fc7c0742a00000000000000000000000000000000000000000000000000000000815260040160405180910390fd5b82600060096000838152602001908152602001600020604051806040016040529081600082015481526020016001820160009054906101000a900473ffffffffffffffffffffffffffffffffffffffff1673ffffffffffffffffffffffffffffffffffffffff1673ffffffffffffffffffffffffffffffffffffffff168152505090503373ffffffffffffffffffffffffffffffffffffffff16816020015173ffffffffffffffffffffffffffffffffffffffff1614610a8f576040517f7cf2c72b00000000000000000000000000000000000000000000000000000000815260040160405180910390fd5b600960008681526020019081526020016000206000808201600090556001820160006101000a81549073ffffffffffffffffffffffffffffffffffffffff021916905550503073ffffffffffffffffffffffffffffffffffffffff166323b872dd3033886040518463ffffffff1660e01b8152600401610b1193929190612f4f565b600060405180830381600087803b158015610b2b57600080fd5b505af1158015610b3f573d6000803e3d6000fd5b505050507f6c6123fde526391ef549308e9c2fda33f57082b7be31768c906b04081abb7165853033610b7089611263565b6000604051610b83959493929190612fcb565b60405180910390a15050505050565b610bad83838360405180602001604052806000815250611201565b505050565b80600060096000838152602001908152602001600020604051806040016040529081600082015481526020016001820160009054906101000a900473ffffffffffffffffffffffffffffffffffffffff1673ffffffffffffffffffffffffffffffffffffffff1673ffffffffffffffffffffffffffffffffffffffff168152505090506000816000015111610c73576040517fc7c0742a00000000000000000000000000000000000000000000000000000000815260040160405180910390fd5b600060096000858152602001908152602001600020604051806040016040529081600082015481526020016001820160009054906101000a900473ffffffffffffffffffffffffffffffffffffffff1673ffffffffffffffffffffffffffffffffffffffff1673ffffffffffffffffffffffffffffffffffffffff1681525050905034816000015114610d3b576040517f08c379a0000000000000000000000000000000000000000000000000000000008152600401610d3290613071565b60405180910390fd5b3073ffffffffffffffffffffffffffffffffffffffff166323b872dd3033876040518463ffffffff1660e01b8152600401610d7893929190612f4f565b600060405180830381600087803b158015610d9257600080fd5b505af1158015610da6573d6000803e3d6000fd5b50505050600960008581526020019081526020016000206000808201600090556001820160006101000a81549073ffffffffffffffffffffffffffffffffffffffff02191690555050806020015173ffffffffffffffffffffffffffffffffffffffff166108fc610e386064610e2a605f8660000151611a8e90919063ffffffff16565b611aa490919063ffffffff16565b9081150290604051600060405180830381858888f19350505050158015610e63573d6000803e3d6000fd5b507f6c6123fde526391ef549308e9c2fda33f57082b7be31768c906b04081abb7165843033610e9188611263565b6000604051610ea4959493929190612fcb565b60405180910390a150505050565b600080610ebe83611aba565b9050600073ffffffffffffffffffffffffffffffffffffffff168173ffffffffffffffffffffffffffffffffffffffff1603610f2f576040517f08c379a0000000000000000000000000000000000000000000000000000000008152600401610f26906130dd565b60405180910390fd5b80915050919050565b60008073ffffffffffffffffffffffffffffffffffffffff168273ffffffffffffffffffffffffffffffffffffffff1603610fa8576040517f08c379a0000000000000000000000000000000000000000000000000000000008152600401610f9f9061316f565b60405180910390fd5b600360008373ffffffffffffffffffffffffffffffffffffffff1673ffffffffffffffffffffffffffffffffffffffff168152602001908152602001600020549050919050565b610ff7611a10565b6110016000611af7565b565b6000600760009054906101000a900473ffffffffffffffffffffffffffffffffffffffff16905090565b60008111611067576040517f0471b37300000000000000000000000000000000000000000000000000000000815260040160405180910390fd5b61107130836106da565b61107c3330846107f1565b60405180604001604052808281526020013373ffffffffffffffffffffffffffffffffffffffff16815250600960008481526020019081526020016000206000820151816000015560208201518160010160006101000a81548173ffffffffffffffffffffffffffffffffffffffff021916908373ffffffffffffffffffffffffffffffffffffffff1602179055509050507f6c6123fde526391ef549308e9c2fda33f57082b7be31768c906b04081abb716582333061113b86611263565b8560405161114d95949392919061318f565b60405180910390a15050565b60606001805461116890612d68565b80601f016020809104026020016040519081016040528092919081815260200182805461119490612d68565b80156111e15780601f106111b6576101008083540402835291602001916111e1565b820191906000526020600020905b8154815290600101906020018083116111c457829003601f168201915b5050505050905090565b6111fd6111f66115c1565b8383611bbd565b5050565b61121261120c6115c1565b83611682565b611251576040517f08c379a000000000000000000000000000000000000000000000000000000000815260040161124890612f2f565b60405180910390fd5b61125d84848484611d29565b50505050565b606061126e82611576565b600060066000848152602001908152602001600020805461128e90612d68565b80601f01602080910402602001604051908101604052809291908181526020018280546112ba90612d68565b80156113075780601f106112dc57610100808354040283529160200191611307565b820191906000526020600020905b8154815290600101906020018083116112ea57829003601f168201915b505050505090506000611318611d85565b9050600081510361132d578192505050611370565b60008251111561136257808260405160200161134a929190613225565b60405160208183030381529060405292505050611370565b61136b84611d9c565b925050505b919050565b6000600560008473ffffffffffffffffffffffffffffffffffffffff1673ffffffffffffffffffffffffffffffffffffffff16815260200190815260200160002060008373ffffffffffffffffffffffffffffffffffffffff1673ffffffffffffffffffffffffffffffffffffffff16815260200190815260200160002060009054906101000a900460ff16905092915050565b611411611a10565b600073ffffffffffffffffffffffffffffffffffffffff168173ffffffffffffffffffffffffffffffffffffffff1603611480576040517f08c379a0000000000000000000000000000000000000000000000000000000008152600401611477906132bb565b60405180910390fd5b61148981611af7565b50565b60008061149960086114fe565b90506114a53382611e04565b6114af8184611e22565b6114b96008611e8f565b7f6c6123fde526391ef549308e9c2fda33f57082b7be31768c906b04081abb71658183338660006040516114f1959493929190612fcb565b60405180910390a1505050565b600081600001549050919050565b60007f01ffc9a7000000000000000000000000000000000000000000000000000000007bffffffffffffffffffffffffffffffffffffffffffffffffffffffff1916827bffffffffffffffffffffffffffffffffffffffffffffffffffffffff1916149050919050565b61157f81611ea5565b6115be576040517f08c379a00000000000000000000000000000000000000000000000000000000081526004016115b5906130dd565b60405180910390fd5b50565b600033905090565b816004600083815260200190815260200160002060006101000a81548173ffffffffffffffffffffffffffffffffffffffff021916908373ffffffffffffffffffffffffffffffffffffffff160217905550808273ffffffffffffffffffffffffffffffffffffffff1661163c83610eb2565b73ffffffffffffffffffffffffffffffffffffffff167f8c5be1e5ebec7d5bd14f71427d1e84f3dd0314c0f7b2291e5b200ac8c7c3b92560405160405180910390a45050565b60008061168e83610eb2565b90508073ffffffffffffffffffffffffffffffffffffffff168473ffffffffffffffffffffffffffffffffffffffff1614806116d057506116cf8185611375565b5b8061170e57508373ffffffffffffffffffffffffffffffffffffffff166116f684610694565b73ffffffffffffffffffffffffffffffffffffffff16145b91505092915050565b8273ffffffffffffffffffffffffffffffffffffffff1661173782610eb2565b73ffffffffffffffffffffffffffffffffffffffff161461178d576040517f08c379a00000000000000000000000000000000000000000000000000000000081526004016117849061334d565b60405180910390fd5b600073ffffffffffffffffffffffffffffffffffffffff168273ffffffffffffffffffffffffffffffffffffffff16036117fc576040517f08c379a00000000000000000000000000000000000000000000000000000000081526004016117f3906133df565b60405180910390fd5b6118098383836001611ee6565b8273ffffffffffffffffffffffffffffffffffffffff1661182982610eb2565b73ffffffffffffffffffffffffffffffffffffffff161461187f576040517f08c379a00000000000000000000000000000000000000000000000000000000081526004016118769061334d565b60405180910390fd5b6004600082815260200190815260200160002060006101000a81549073ffffffffffffffffffffffffffffffffffffffff02191690556001600360008573ffffffffffffffffffffffffffffffffffffffff1673ffffffffffffffffffffffffffffffffffffffff168152602001908152602001600020600082825403925050819055506001600360008473ffffffffffffffffffffffffffffffffffffffff1673ffffffffffffffffffffffffffffffffffffffff16815260200190815260200160002060008282540192505081905550816002600083815260200190815260200160002060006101000a81548173ffffffffffffffffffffffffffffffffffffffff021916908373ffffffffffffffffffffffffffffffffffffffff160217905550808273ffffffffffffffffffffffffffffffffffffffff168473ffffffffffffffffffffffffffffffffffffffff167fddf252ad1be2c89b69c2b068fc378daa952ba7f163c4a11628f55a4df523b3ef60405160405180910390a4611a0b838383600161200c565b505050565b611a186115c1565b73ffffffffffffffffffffffffffffffffffffffff16611a36611003565b73ffffffffffffffffffffffffffffffffffffffff1614611a8c576040517f08c379a0000000000000000000000000000000000000000000000000000000008152600401611a839061344b565b60405180910390fd5b565b60008183611a9c919061349a565b905092915050565b60008183611ab2919061350b565b905092915050565b60006002600083815260200190815260200160002060009054906101000a900473ffffffffffffffffffffffffffffffffffffffff169050919050565b6000600760009054906101000a900473ffffffffffffffffffffffffffffffffffffffff16905081600760006101000a81548173ffffffffffffffffffffffffffffffffffffffff021916908373ffffffffffffffffffffffffffffffffffffffff1602179055508173ffffffffffffffffffffffffffffffffffffffff168173ffffffffffffffffffffffffffffffffffffffff167f8be0079c531659141344cd1fd0a4f28419497f9722a3daafe3b4186f6b6457e060405160405180910390a35050565b8173ffffffffffffffffffffffffffffffffffffffff168373ffffffffffffffffffffffffffffffffffffffff1603611c2b576040517f08c379a0000000000000000000000000000000000000000000000000000000008152600401611c2290613588565b60405180910390fd5b80600560008573ffffffffffffffffffffffffffffffffffffffff1673ffffffffffffffffffffffffffffffffffffffff16815260200190815260200160002060008473ffffffffffffffffffffffffffffffffffffffff1673ffffffffffffffffffffffffffffffffffffffff16815260200190815260200160002060006101000a81548160ff0219169083151502179055508173ffffffffffffffffffffffffffffffffffffffff168373ffffffffffffffffffffffffffffffffffffffff167f17307eab39ab6107e8899845ad3d59bd9653f200f220920489ca2b5937696c3183604051611d1c919061273d565b60405180910390a3505050565b611d34848484611717565b611d4084848484612012565b611d7f576040517f08c379a0000000000000000000000000000000000000000000000000000000008152600401611d769061361a565b60405180910390fd5b50505050565b606060405180602001604052806000815250905090565b6060611da782611576565b6000611db1611d85565b90506000815111611dd15760405180602001604052806000815250611dfc565b80611ddb84612199565b604051602001611dec929190613225565b6040516020818303038152906040525b915050919050565b611e1e828260405180602001604052806000815250612267565b5050565b611e2b82611ea5565b611e6a576040517f08c379a0000000000000000000000000000000000000000000000000000000008152600401611e61906136ac565b60405180910390fd5b80600660008481526020019081526020016000209081611e8a919061386e565b505050565b6001816000016000828254019250508190555050565b60008073ffffffffffffffffffffffffffffffffffffffff16611ec783611aba565b73ffffffffffffffffffffffffffffffffffffffff1614159050919050565b600181111561200657600073ffffffffffffffffffffffffffffffffffffffff168473ffffffffffffffffffffffffffffffffffffffff1614611f7a5780600360008673ffffffffffffffffffffffffffffffffffffffff1673ffffffffffffffffffffffffffffffffffffffff1681526020019081526020016000206000828254611f729190613940565b925050819055505b600073ffffffffffffffffffffffffffffffffffffffff168373ffffffffffffffffffffffffffffffffffffffff16146120055780600360008573ffffffffffffffffffffffffffffffffffffffff1673ffffffffffffffffffffffffffffffffffffffff1681526020019081526020016000206000828254611ffd9190613974565b925050819055505b5b50505050565b50505050565b60006120338473ffffffffffffffffffffffffffffffffffffffff166122c2565b1561218c578373ffffffffffffffffffffffffffffffffffffffff1663150b7a0261205c6115c1565b8786866040518563ffffffff1660e01b815260040161207e94939291906139fd565b6020604051808303816000875af19250505080156120ba57506040513d601f19601f820116820180604052508101906120b79190613a5e565b60015b61213c573d80600081146120ea576040519150601f19603f3d011682016040523d82523d6000602084013e6120ef565b606091505b506000815103612134576040517f08c379a000000000000000000000000000000000000000000000000000000000815260040161212b9061361a565b60405180910390fd5b805181602001fd5b63150b7a0260e01b7bffffffffffffffffffffffffffffffffffffffffffffffffffffffff1916817bffffffffffffffffffffffffffffffffffffffffffffffffffffffff191614915050612191565b600190505b949350505050565b6060600060016121a8846122e5565b01905060008167ffffffffffffffff8111156121c7576121c6612a61565b5b6040519080825280601f01601f1916602001820160405280156121f95781602001600182028036833780820191505090505b509050600082602001820190505b60011561225c578080600190039150507f3031323334353637383961626364656600000000000000000000000000000000600a86061a8153600a85816122505761224f6134dc565b5b04945060008503612207575b819350505050919050565b6122718383612438565b61227e6000848484612012565b6122bd576040517f08c379a00000000000000000000000000000000000000000000000000000000081526004016122b49061361a565b60405180910390fd5b505050565b6000808273ffffffffffffffffffffffffffffffffffffffff163b119050919050565b600080600090507a184f03e93ff9f4daa797ed6e38ed64bf6a1f0100000000000000008310612343577a184f03e93ff9f4daa797ed6e38ed64bf6a1f0100000000000000008381612339576123386134dc565b5b0492506040810190505b6d04ee2d6d415b85acef81000000008310612380576d04ee2d6d415b85acef81000000008381612376576123756134dc565b5b0492506020810190505b662386f26fc1000083106123af57662386f26fc1000083816123a5576123a46134dc565b5b0492506010810190505b6305f5e10083106123d8576305f5e10083816123ce576123cd6134dc565b5b0492506008810190505b61271083106123fd5761271083816123f3576123f26134dc565b5b0492506004810190505b606483106124205760648381612416576124156134dc565b5b0492506002810190505b600a831061242f576001810190505b80915050919050565b600073ffffffffffffffffffffffffffffffffffffffff168273ffffffffffffffffffffffffffffffffffffffff16036124a7576040517f08c379a000000000000000000000000000000000000000000000000000000000815260040161249e90613ad7565b60405180910390fd5b6124b081611ea5565b156124f0576040517f08c379a00000000000000000000000000000000000000000000000000000000081526004016124e790613b43565b60405180910390fd5b6124fe600083836001611ee6565b61250781611ea5565b15612547576040517f08c379a000000000000000000000000000000000000000000000000000000000815260040161253e90613b43565b60405180910390fd5b6001600360008473ffffffffffffffffffffffffffffffffffffffff1673ffffffffffffffffffffffffffffffffffffffff16815260200190815260200160002060008282540192505081905550816002600083815260200190815260200160002060006101000a81548173ffffffffffffffffffffffffffffffffffffffff021916908373ffffffffffffffffffffffffffffffffffffffff160217905550808273ffffffffffffffffffffffffffffffffffffffff16600073ffffffffffffffffffffffffffffffffffffffff167fddf252ad1be2c89b69c2b068fc378daa952ba7f163c4a11628f55a4df523b3ef60405160405180910390a461265160008383600161200c565b5050565b6000819050919050565b61266881612655565b82525050565b6000602082019050612683600083018461265f565b92915050565b6000604051905090565b600080fd5b600080fd5b60007fffffffff0000000000000000000000000000000000000000000000000000000082169050919050565b6126d28161269d565b81146126dd57600080fd5b50565b6000813590506126ef816126c9565b92915050565b60006020828403121561270b5761270a612693565b5b6000612719848285016126e0565b91505092915050565b60008115159050919050565b61273781612722565b82525050565b6000602082019050612752600083018461272e565b92915050565b600081519050919050565b600082825260208201905092915050565b60005b83811015612792578082015181840152602081019050612777565b60008484015250505050565b6000601f19601f8301169050919050565b60006127ba82612758565b6127c48185612763565b93506127d4818560208601612774565b6127dd8161279e565b840191505092915050565b6000602082019050818103600083015261280281846127af565b905092915050565b61281381612655565b811461281e57600080fd5b50565b6000813590506128308161280a565b92915050565b60006020828403121561284c5761284b612693565b5b600061285a84828501612821565b91505092915050565b600073ffffffffffffffffffffffffffffffffffffffff82169050919050565b600061288e82612863565b9050919050565b61289e81612883565b82525050565b60006020820190506128b96000830184612895565b92915050565b6128c881612883565b81146128d357600080fd5b50565b6000813590506128e5816128bf565b92915050565b6000806040838503121561290257612901612693565b5b6000612910858286016128d6565b925050602061292185828601612821565b9150509250929050565b60008060006060848603121561294457612943612693565b5b6000612952868287016128d6565b9350506020612963868287016128d6565b925050604061297486828701612821565b9150509250925092565b60006020828403121561299457612993612693565b5b60006129a2848285016128d6565b91505092915050565b600080604083850312156129c2576129c1612693565b5b60006129d085828601612821565b92505060206129e185828601612821565b9150509250929050565b6129f481612722565b81146129ff57600080fd5b50565b600081359050612a11816129eb565b92915050565b60008060408385031215612a2e57612a2d612693565b5b6000612a3c858286016128d6565b9250506020612a4d85828601612a02565b9150509250929050565b600080fd5b600080fd5b7f4e487b7100000000000000000000000000000000000000000000000000000000600052604160045260246000fd5b612a998261279e565b810181811067ffffffffffffffff82111715612ab857612ab7612a61565b5b80604052505050565b6000612acb612689565b9050612ad78282612a90565b919050565b600067ffffffffffffffff821115612af757612af6612a61565b5b612b008261279e565b9050602081019050919050565b82818337600083830152505050565b6000612b2f612b2a84612adc565b612ac1565b905082815260208101848484011115612b4b57612b4a612a5c565b5b612b56848285612b0d565b509392505050565b600082601f830112612b7357612b72612a57565b5b8135612b83848260208601612b1c565b91505092915050565b60008060008060808587031215612ba657612ba5612693565b5b6000612bb4878288016128d6565b9450506020612bc5878288016128d6565b9350506040612bd687828801612821565b925050606085013567ffffffffffffffff811115612bf757612bf6612698565b5b612c0387828801612b5e565b91505092959194509250565b60008060408385031215612c2657612c25612693565b5b6000612c34858286016128d6565b9250506020612c45858286016128d6565b9150509250929050565b600067ffffffffffffffff821115612c6a57612c69612a61565b5b612c738261279e565b9050602081019050919050565b6000612c93612c8e84612c4f565b612ac1565b905082815260208101848484011115612caf57612cae612a5c565b5b612cba848285612b0d565b509392505050565b600082601f830112612cd757612cd6612a57565b5b8135612ce7848260208601612c80565b91505092915050565b600060208284031215612d0657612d05612693565b5b600082013567ffffffffffffffff811115612d2457612d23612698565b5b612d3084828501612cc2565b91505092915050565b7f4e487b7100000000000000000000000000000000000000000000000000000000600052602260045260246000fd5b60006002820490506001821680612d8057607f821691505b602082108103612d9357612d92612d39565b5b50919050565b7f4552433732313a20617070726f76616c20746f2063757272656e74206f776e6560008201527f7200000000000000000000000000000000000000000000000000000000000000602082015250565b6000612df5602183612763565b9150612e0082612d99565b604082019050919050565b60006020820190508181036000830152612e2481612de8565b9050919050565b7f4552433732313a20617070726f76652063616c6c6572206973206e6f7420746f60008201527f6b656e206f776e6572206f7220617070726f76656420666f7220616c6c000000602082015250565b6000612e87603d83612763565b9150612e9282612e2b565b604082019050919050565b60006020820190508181036000830152612eb681612e7a565b9050919050565b7f4552433732313a2063616c6c6572206973206e6f7420746f6b656e206f776e6560008201527f72206f7220617070726f76656400000000000000000000000000000000000000602082015250565b6000612f19602d83612763565b9150612f2482612ebd565b604082019050919050565b60006020820190508181036000830152612f4881612f0c565b9050919050565b6000606082019050612f646000830186612895565b612f716020830185612895565b612f7e604083018461265f565b949350505050565b6000819050919050565b6000819050919050565b6000612fb5612fb0612fab84612f86565b612f90565b612655565b9050919050565b612fc581612f9a565b82525050565b600060a082019050612fe0600083018861265f565b612fed6020830187612895565b612ffa6040830186612895565b818103606083015261300c81856127af565b905061301b6080830184612fbc565b9695505050505050565b7f4e4654204d61726b65743a20496e636f72726563742070726963650000000000600082015250565b600061305b601b83612763565b915061306682613025565b602082019050919050565b6000602082019050818103600083015261308a8161304e565b9050919050565b7f4552433732313a20696e76616c696420746f6b656e2049440000000000000000600082015250565b60006130c7601883612763565b91506130d282613091565b602082019050919050565b600060208201905081810360008301526130f6816130ba565b9050919050565b7f4552433732313a2061646472657373207a65726f206973206e6f74206120766160008201527f6c6964206f776e65720000000000000000000000000000000000000000000000602082015250565b6000613159602983612763565b9150613164826130fd565b604082019050919050565b600060208201905081810360008301526131888161314c565b9050919050565b600060a0820190506131a4600083018861265f565b6131b16020830187612895565b6131be6040830186612895565b81810360608301526131d081856127af565b90506131df608083018461265f565b9695505050505050565b600081905092915050565b60006131ff82612758565b61320981856131e9565b9350613219818560208601612774565b80840191505092915050565b600061323182856131f4565b915061323d82846131f4565b91508190509392505050565b7f4f776e61626c653a206e6577206f776e657220697320746865207a65726f206160008201527f6464726573730000000000000000000000000000000000000000000000000000602082015250565b60006132a5602683612763565b91506132b082613249565b604082019050919050565b600060208201905081810360008301526132d481613298565b9050919050565b7f4552433732313a207472616e736665722066726f6d20696e636f72726563742060008201527f6f776e6572000000000000000000000000000000000000000000000000000000602082015250565b6000613337602583612763565b9150613342826132db565b604082019050919050565b600060208201905081810360008301526133668161332a565b9050919050565b7f4552433732313a207472616e7366657220746f20746865207a65726f2061646460008201527f7265737300000000000000000000000000000000000000000000000000000000602082015250565b60006133c9602483612763565b91506133d48261336d565b604082019050919050565b600060208201905081810360008301526133f8816133bc565b9050919050565b7f4f776e61626c653a2063616c6c6572206973206e6f7420746865206f776e6572600082015250565b6000613435602083612763565b9150613440826133ff565b602082019050919050565b6000602082019050818103600083015261346481613428565b9050919050565b7f4e487b7100000000000000000000000000000000000000000000000000000000600052601160045260246000fd5b60006134a582612655565b91506134b083612655565b92508282026134be81612655565b915082820484148315176134d5576134d461346b565b5b5092915050565b7f4e487b7100000000000000000000000000000000000000000000000000000000600052601260045260246000fd5b600061351682612655565b915061352183612655565b925082613531576135306134dc565b5b828204905092915050565b7f4552433732313a20617070726f766520746f2063616c6c657200000000000000600082015250565b6000613572601983612763565b915061357d8261353c565b602082019050919050565b600060208201905081810360008301526135a181613565565b9050919050565b7f4552433732313a207472616e7366657220746f206e6f6e20455243373231526560008201527f63656976657220696d706c656d656e7465720000000000000000000000000000602082015250565b6000613604603283612763565b915061360f826135a8565b604082019050919050565b60006020820190508181036000830152613633816135f7565b9050919050565b7f45524337323155524953746f726167653a2055524920736574206f66206e6f6e60008201527f6578697374656e7420746f6b656e000000000000000000000000000000000000602082015250565b6000613696602e83612763565b91506136a18261363a565b604082019050919050565b600060208201905081810360008301526136c581613689565b9050919050565b60008190508160005260206000209050919050565b60006020601f8301049050919050565b600082821b905092915050565b60006008830261372e7fffffffffffffffffffffffffffffffffffffffffffffffffffffffffffffffff826136f1565b61373886836136f1565b95508019841693508086168417925050509392505050565b600061376b61376661376184612655565b612f90565b612655565b9050919050565b6000819050919050565b61378583613750565b61379961379182613772565b8484546136fe565b825550505050565b600090565b6137ae6137a1565b6137b981848461377c565b505050565b5b818110156137dd576137d26000826137a6565b6001810190506137bf565b5050565b601f821115613822576137f3816136cc565b6137fc846136e1565b8101602085101561380b578190505b61381f613817856136e1565b8301826137be565b50505b505050565b600082821c905092915050565b600061384560001984600802613827565b1980831691505092915050565b600061385e8383613834565b9150826002028217905092915050565b61387782612758565b67ffffffffffffffff8111156138905761388f612a61565b5b61389a8254612d68565b6138a58282856137e1565b600060209050601f8311600181146138d857600084156138c6578287015190505b6138d08582613852565b865550613938565b601f1984166138e6866136cc565b60005b8281101561390e578489015182556001820191506020850194506020810190506138e9565b8683101561392b5784890151613927601f891682613834565b8355505b6001600288020188555050505b505050505050565b600061394b82612655565b915061395683612655565b925082820390508181111561396e5761396d61346b565b5b92915050565b600061397f82612655565b915061398a83612655565b92508282019050808211156139a2576139a161346b565b5b92915050565b600081519050919050565b600082825260208201905092915050565b60006139cf826139a8565b6139d981856139b3565b93506139e9818560208601612774565b6139f28161279e565b840191505092915050565b6000608082019050613a126000830187612895565b613a1f6020830186612895565b613a2c604083018561265f565b8181036060830152613a3e81846139c4565b905095945050505050565b600081519050613a58816126c9565b92915050565b600060208284031215613a7457613a73612693565b5b6000613a8284828501613a49565b91505092915050565b7f4552433732313a206d696e7420746f20746865207a65726f2061646472657373600082015250565b6000613ac1602083612763565b9150613acc82613a8b565b602082019050919050565b60006020820190508181036000830152613af081613ab4565b9050919050565b7f4552433732313a20746f6b656e20616c7265616479206d696e74656400000000600082015250565b6000613b2d601c83612763565b9150613b3882613af7565b602082019050919050565b60006020820190508181036000830152613b5c81613b20565b905091905056fea264697066735822122013eb9034f31adc18716e49fe4b1f0dc5c530e9212234a9877ce24ef440c8ffaf64736f6c63430008110033",
  "devdoc": {
    "kind": "dev",
    "methods": {
      "approve(address,uint256)": {
        "details": "See {IERC721-approve}."
      },
      "balanceOf(address)": {
        "details": "See {IERC721-balanceOf}."
      },
      "buyNFT(uint256)": {
        "params": {
          "tokenId": "unique id for the required NFT."
        }
      },
      "getApproved(uint256)": {
        "details": "See {IERC721-getApproved}."
      },
      "isApprovedForAll(address,address)": {
        "details": "See {IERC721-isApprovedForAll}."
      },
      "listNFT(uint256,uint256)": {
        "params": {
          "price": "price of the NFT",
          "tokenId": "gives a unique tokenId for an NFT"
        }
      },
      "name()": {
        "details": "See {IERC721Metadata-name}."
      },
      "owner()": {
        "details": "Returns the address of the current owner."
      },
      "ownerOf(uint256)": {
        "details": "See {IERC721-ownerOf}."
      },
      "renounceOwnership()": {
        "details": "Leaves the contract without owner. It will not be possible to call `onlyOwner` functions anymore. Can only be called by the current owner. NOTE: Renouncing ownership will leave the contract without an owner, thereby removing any functionality that is only available to the owner."
      },
      "safeTransferFrom(address,address,uint256)": {
        "details": "See {IERC721-safeTransferFrom}."
      },
      "safeTransferFrom(address,address,uint256,bytes)": {
        "details": "See {IERC721-safeTransferFrom}."
      },
      "setApprovalForAll(address,bool)": {
        "details": "See {IERC721-setApprovalForAll}."
      },
      "supportsInterface(bytes4)": {
        "details": "See {IERC165-supportsInterface}."
      },
      "symbol()": {
        "details": "See {IERC721Metadata-symbol}."
      },
      "tokenURI(uint256)": {
        "details": "See {IERC721Metadata-tokenURI}."
      },
      "transferFrom(address,address,uint256)": {
        "details": "See {IERC721-transferFrom}."
      },
      "transferOwnership(address)": {
        "details": "Transfers ownership of the contract to a new account (`newOwner`). Can only be called by the current owner."
      }
    },
    "version": 1
  },
  "userdoc": {
    "events": {
      "NftTransfer(uint256,address,address,string,uint256)": {
        "notice": "Events - useful for the frontend of the app."
      }
    },
    "kind": "user",
    "methods": {
      "buyNFT(uint256)": {
        "notice": "Buy an NFT 2 Conditions should be met - the NFT should be listed and the amount recieved should be equal to the listing price of the NFT."
      },
      "cancelListing(uint256)": {
        "notice": "Cancel the listing of an NFT 2 conditions - the NFT should be listed and the owner should be the one who calls this function"
      },
      "listNFT(uint256,uint256)": {
        "notice": "List an NFT"
      }
    },
    "version": 1
  },
  "storageLayout": {
    "storage": [
      {
        "astId": 138,
        "contract": "contracts/NFTMarket.sol:NFTMarket",
        "label": "_name",
        "offset": 0,
        "slot": "0",
        "type": "t_string_storage"
      },
      {
        "astId": 140,
        "contract": "contracts/NFTMarket.sol:NFTMarket",
        "label": "_symbol",
        "offset": 0,
        "slot": "1",
        "type": "t_string_storage"
      },
      {
        "astId": 144,
        "contract": "contracts/NFTMarket.sol:NFTMarket",
        "label": "_owners",
        "offset": 0,
        "slot": "2",
        "type": "t_mapping(t_uint256,t_address)"
      },
      {
        "astId": 148,
        "contract": "contracts/NFTMarket.sol:NFTMarket",
        "label": "_balances",
        "offset": 0,
        "slot": "3",
        "type": "t_mapping(t_address,t_uint256)"
      },
      {
        "astId": 152,
        "contract": "contracts/NFTMarket.sol:NFTMarket",
        "label": "_tokenApprovals",
        "offset": 0,
        "slot": "4",
        "type": "t_mapping(t_uint256,t_address)"
      },
      {
        "astId": 158,
        "contract": "contracts/NFTMarket.sol:NFTMarket",
        "label": "_operatorApprovals",
        "offset": 0,
        "slot": "5",
        "type": "t_mapping(t_address,t_mapping(t_address,t_bool))"
      },
      {
        "astId": 1204,
        "contract": "contracts/NFTMarket.sol:NFTMarket",
        "label": "_tokenURIs",
        "offset": 0,
        "slot": "6",
        "type": "t_mapping(t_uint256,t_string_storage)"
      },
      {
        "astId": 7,
        "contract": "contracts/NFTMarket.sol:NFTMarket",
        "label": "_owner",
        "offset": 0,
        "slot": "7",
        "type": "t_address"
      },
      {
        "astId": 3185,
        "contract": "contracts/NFTMarket.sol:NFTMarket",
        "label": "_tokenIds",
        "offset": 0,
        "slot": "8",
        "type": "t_struct(Counter)1701_storage"
      },
      {
        "astId": 3208,
        "contract": "contracts/NFTMarket.sol:NFTMarket",
        "label": "s_listings",
        "offset": 0,
        "slot": "9",
        "type": "t_mapping(t_uint256,t_struct(Listing)3203_storage)"
      }
    ],
    "types": {
      "t_address": {
        "encoding": "inplace",
        "label": "address",
        "numberOfBytes": "20"
      },
      "t_bool": {
        "encoding": "inplace",
        "label": "bool",
        "numberOfBytes": "1"
      },
      "t_mapping(t_address,t_bool)": {
        "encoding": "mapping",
        "key": "t_address",
        "label": "mapping(address => bool)",
        "numberOfBytes": "32",
        "value": "t_bool"
      },
      "t_mapping(t_address,t_mapping(t_address,t_bool))": {
        "encoding": "mapping",
        "key": "t_address",
        "label": "mapping(address => mapping(address => bool))",
        "numberOfBytes": "32",
        "value": "t_mapping(t_address,t_bool)"
      },
      "t_mapping(t_address,t_uint256)": {
        "encoding": "mapping",
        "key": "t_address",
        "label": "mapping(address => uint256)",
        "numberOfBytes": "32",
        "value": "t_uint256"
      },
      "t_mapping(t_uint256,t_address)": {
        "encoding": "mapping",
        "key": "t_uint256",
        "label": "mapping(uint256 => address)",
        "numberOfBytes": "32",
        "value": "t_address"
      },
      "t_mapping(t_uint256,t_string_storage)": {
        "encoding": "mapping",
        "key": "t_uint256",
        "label": "mapping(uint256 => string)",
        "numberOfBytes": "32",
        "value": "t_string_storage"
      },
      "t_mapping(t_uint256,t_struct(Listing)3203_storage)": {
        "encoding": "mapping",
        "key": "t_uint256",
        "label": "mapping(uint256 => struct NFTMarket.Listing)",
        "numberOfBytes": "32",
        "value": "t_struct(Listing)3203_storage"
      },
      "t_string_storage": {
        "encoding": "bytes",
        "label": "string",
        "numberOfBytes": "32"
      },
      "t_struct(Counter)1701_storage": {
        "encoding": "inplace",
        "label": "struct Counters.Counter",
        "members": [
          {
            "astId": 1700,
            "contract": "contracts/NFTMarket.sol:NFTMarket",
            "label": "_value",
            "offset": 0,
            "slot": "0",
            "type": "t_uint256"
          }
        ],
        "numberOfBytes": "32"
      },
      "t_struct(Listing)3203_storage": {
        "encoding": "inplace",
        "label": "struct NFTMarket.Listing",
        "members": [
          {
            "astId": 3200,
            "contract": "contracts/NFTMarket.sol:NFTMarket",
            "label": "price",
            "offset": 0,
            "slot": "0",
            "type": "t_uint256"
          },
          {
            "astId": 3202,
            "contract": "contracts/NFTMarket.sol:NFTMarket",
            "label": "seller",
            "offset": 0,
            "slot": "1",
            "type": "t_address"
          }
        ],
        "numberOfBytes": "64"
      },
      "t_uint256": {
        "encoding": "inplace",
        "label": "uint256",
        "numberOfBytes": "32"
      }
    }
  }
}