{
  "address": "0x39a8e602Ffd8c384d5D734D37a9B959bc3E6D4ae",
  "abi": [
    {
      "inputs": [],
      "stateMutability": "nonpayable",
      "type": "constructor"
    },
    {
      "inputs": [],
      "name": "NFTMarket__InvalidPrice",
      "type": "error"
    },
    {
      "inputs": [],
      "name": "NFTMarket__NFTnotListed",
      "type": "error"
    },
    {
      "inputs": [],
      "name": "NFTMarket__NotOwner",
      "type": "error"
    },
    {
      "inputs": [],
      "name": "NFTMarket__ZeroBalance",
      "type": "error"
    },
    {
      "anonymous": false,
      "inputs": [
        {
          "indexed": true,
          "internalType": "address",
          "name": "owner",
          "type": "address"
        },
        {
          "indexed": true,
          "internalType": "address",
          "name": "approved",
          "type": "address"
        },
        {
          "indexed": true,
          "internalType": "uint256",
          "name": "tokenId",
          "type": "uint256"
        }
      ],
      "name": "Approval",
      "type": "event"
    },
    {
      "anonymous": false,
      "inputs": [
        {
          "indexed": true,
          "internalType": "address",
          "name": "owner",
          "type": "address"
        },
        {
          "indexed": true,
          "internalType": "address",
          "name": "operator",
          "type": "address"
        },
        {
          "indexed": false,
          "internalType": "bool",
          "name": "approved",
          "type": "bool"
        }
      ],
      "name": "ApprovalForAll",
      "type": "event"
    },
    {
      "anonymous": false,
      "inputs": [
        {
          "indexed": false,
          "internalType": "uint256",
          "name": "tokenId",
          "type": "uint256"
        },
        {
          "indexed": false,
          "internalType": "address",
          "name": "from",
          "type": "address"
        },
        {
          "indexed": false,
          "internalType": "address",
          "name": "to",
          "type": "address"
        },
        {
          "indexed": false,
          "internalType": "string",
          "name": "tokenUri",
          "type": "string"
        },
        {
          "indexed": false,
          "internalType": "uint256",
          "name": "price",
          "type": "uint256"
        }
      ],
      "name": "NftTransfer",
      "type": "event"
    },
    {
      "anonymous": false,
      "inputs": [
        {
          "indexed": true,
          "internalType": "address",
          "name": "previousOwner",
          "type": "address"
        },
        {
          "indexed": true,
          "internalType": "address",
          "name": "newOwner",
          "type": "address"
        }
      ],
      "name": "OwnershipTransferred",
      "type": "event"
    },
    {
      "anonymous": false,
      "inputs": [
        {
          "indexed": true,
          "internalType": "address",
          "name": "from",
          "type": "address"
        },
        {
          "indexed": true,
          "internalType": "address",
          "name": "to",
          "type": "address"
        },
        {
          "indexed": true,
          "internalType": "uint256",
          "name": "tokenId",
          "type": "uint256"
        }
      ],
      "name": "Transfer",
      "type": "event"
    },
    {
      "inputs": [
        {
          "internalType": "address",
          "name": "to",
          "type": "address"
        },
        {
          "internalType": "uint256",
          "name": "tokenId",
          "type": "uint256"
        }
      ],
      "name": "approve",
      "outputs": [],
      "stateMutability": "nonpayable",
      "type": "function"
    },
    {
      "inputs": [
        {
          "internalType": "address",
          "name": "owner",
          "type": "address"
        }
      ],
      "name": "balanceOf",
      "outputs": [
        {
          "internalType": "uint256",
          "name": "",
          "type": "uint256"
        }
      ],
      "stateMutability": "view",
      "type": "function"
    },
    {
      "inputs": [
        {
          "internalType": "uint256",
          "name": "tokenId",
          "type": "uint256"
        }
      ],
      "name": "buyNFT",
      "outputs": [],
      "stateMutability": "payable",
      "type": "function"
    },
    {
      "inputs": [
        {
          "internalType": "uint256",
          "name": "tokenId",
          "type": "uint256"
        }
      ],
      "name": "cancelListing",
      "outputs": [],
      "stateMutability": "nonpayable",
      "type": "function"
    },
    {
      "inputs": [
        {
          "internalType": "uint256",
          "name": "tokenId",
          "type": "uint256"
        }
      ],
      "name": "getApproved",
      "outputs": [
        {
          "internalType": "address",
          "name": "",
          "type": "address"
        }
      ],
      "stateMutability": "view",
      "type": "function"
    },
    {
      "inputs": [],
      "name": "getTokenId",
      "outputs": [
        {
          "internalType": "uint256",
          "name": "",
          "type": "uint256"
        }
      ],
      "stateMutability": "view",
      "type": "function"
    },
    {
      "inputs": [
        {
          "internalType": "address",
          "name": "owner",
          "type": "address"
        },
        {
          "internalType": "address",
          "name": "operator",
          "type": "address"
        }
      ],
      "name": "isApprovedForAll",
      "outputs": [
        {
          "internalType": "bool",
          "name": "",
          "type": "bool"
        }
      ],
      "stateMutability": "view",
      "type": "function"
    },
    {
      "inputs": [
        {
          "internalType": "uint256",
          "name": "tokenId",
          "type": "uint256"
        },
        {
          "internalType": "uint256",
          "name": "price",
          "type": "uint256"
        }
      ],
      "name": "listNFT",
      "outputs": [],
      "stateMutability": "nonpayable",
      "type": "function"
    },
    {
      "inputs": [
        {
          "internalType": "string",
          "name": "tokenURI",
          "type": "string"
        }
      ],
      "name": "mintNFT",
      "outputs": [],
      "stateMutability": "nonpayable",
      "type": "function"
    },
    {
      "inputs": [],
      "name": "name",
      "outputs": [
        {
          "internalType": "string",
          "name": "",
          "type": "string"
        }
      ],
      "stateMutability": "view",
      "type": "function"
    },
    {
      "inputs": [],
      "name": "owner",
      "outputs": [
        {
          "internalType": "address",
          "name": "",
          "type": "address"
        }
      ],
      "stateMutability": "view",
      "type": "function"
    },
    {
      "inputs": [
        {
          "internalType": "uint256",
          "name": "tokenId",
          "type": "uint256"
        }
      ],
      "name": "ownerOf",
      "outputs": [
        {
          "internalType": "address",
          "name": "",
          "type": "address"
        }
      ],
      "stateMutability": "view",
      "type": "function"
    },
    {
      "inputs": [],
      "name": "renounceOwnership",
      "outputs": [],
      "stateMutability": "nonpayable",
      "type": "function"
    },
    {
      "inputs": [
        {
          "internalType": "address",
          "name": "from",
          "type": "address"
        },
        {
          "internalType": "address",
          "name": "to",
          "type": "address"
        },
        {
          "internalType": "uint256",
          "name": "tokenId",
          "type": "uint256"
        }
      ],
      "name": "safeTransferFrom",
      "outputs": [],
      "stateMutability": "nonpayable",
      "type": "function"
    },
    {
      "inputs": [
        {
          "internalType": "address",
          "name": "from",
          "type": "address"
        },
        {
          "internalType": "address",
          "name": "to",
          "type": "address"
        },
        {
          "internalType": "uint256",
          "name": "tokenId",
          "type": "uint256"
        },
        {
          "internalType": "bytes",
          "name": "data",
          "type": "bytes"
        }
      ],
      "name": "safeTransferFrom",
      "outputs": [],
      "stateMutability": "nonpayable",
      "type": "function"
    },
    {
      "inputs": [
        {
          "internalType": "address",
          "name": "operator",
          "type": "address"
        },
        {
          "internalType": "bool",
          "name": "approved",
          "type": "bool"
        }
      ],
      "name": "setApprovalForAll",
      "outputs": [],
      "stateMutability": "nonpayable",
      "type": "function"
    },
    {
      "inputs": [
        {
          "internalType": "bytes4",
          "name": "interfaceId",
          "type": "bytes4"
        }
      ],
      "name": "supportsInterface",
      "outputs": [
        {
          "internalType": "bool",
          "name": "",
          "type": "bool"
        }
      ],
      "stateMutability": "view",
      "type": "function"
    },
    {
      "inputs": [],
      "name": "symbol",
      "outputs": [
        {
          "internalType": "string",
          "name": "",
          "type": "string"
        }
      ],
      "stateMutability": "view",
      "type": "function"
    },
    {
      "inputs": [
        {
          "internalType": "uint256",
          "name": "tokenId",
          "type": "uint256"
        }
      ],
      "name": "tokenURI",
      "outputs": [
        {
          "internalType": "string",
          "name": "",
          "type": "string"
        }
      ],
      "stateMutability": "view",
      "type": "function"
    },
    {
      "inputs": [
        {
          "internalType": "address",
          "name": "from",
          "type": "address"
        },
        {
          "internalType": "address",
          "name": "to",
          "type": "address"
        },
        {
          "internalType": "uint256",
          "name": "tokenId",
          "type": "uint256"
        }
      ],
      "name": "transferFrom",
      "outputs": [],
      "stateMutability": "nonpayable",
      "type": "function"
    },
    {
      "inputs": [
        {
          "internalType": "address",
          "name": "newOwner",
          "type": "address"
        }
      ],
      "name": "transferOwnership",
      "outputs": [],
      "stateMutability": "nonpayable",
      "type": "function"
    },
    {
      "inputs": [],
      "name": "withdrawFunds",
      "outputs": [],
      "stateMutability": "nonpayable",
      "type": "function"
    }
  ],
  "transactionHash": "0x8b517f158e0c69839610f5b90a90543c8ee4a2230f4f3a3f709874a42872ce20",
  "args": [],
  "numDeployments": 1,
  "solcInputHash": "ea021310ba7904c6fb47a297e3aa0163",
  "bytecode": "0x60806040523480156200001157600080fd5b506040518060400160405280600a81526020017f4e4654204d61726b6574000000000000000000000000000000000000000000008152506040518060400160405280600481526020017f4e46544d0000000000000000000000000000000000000000000000000000000081525081600090816200008f919062000412565b508060019081620000a1919062000412565b505050620000c4620000b8620000ca60201b60201c565b620000d260201b60201c565b620004f9565b600033905090565b6000600760009054906101000a900473ffffffffffffffffffffffffffffffffffffffff16905081600760006101000a81548173ffffffffffffffffffffffffffffffffffffffff021916908373ffffffffffffffffffffffffffffffffffffffff1602179055508173ffffffffffffffffffffffffffffffffffffffff168173ffffffffffffffffffffffffffffffffffffffff167f8be0079c531659141344cd1fd0a4f28419497f9722a3daafe3b4186f6b6457e060405160405180910390a35050565b600081519050919050565b7f4e487b7100000000000000000000000000000000000000000000000000000000600052604160045260246000fd5b7f4e487b7100000000000000000000000000000000000000000000000000000000600052602260045260246000fd5b600060028204905060018216806200021a57607f821691505b60208210810362000230576200022f620001d2565b5b50919050565b60008190508160005260206000209050919050565b60006020601f8301049050919050565b600082821b905092915050565b6000600883026200029a7fffffffffffffffffffffffffffffffffffffffffffffffffffffffffffffffff826200025b565b620002a686836200025b565b95508019841693508086168417925050509392505050565b6000819050919050565b6000819050919050565b6000620002f3620002ed620002e784620002be565b620002c8565b620002be565b9050919050565b6000819050919050565b6200030f83620002d2565b620003276200031e82620002fa565b84845462000268565b825550505050565b600090565b6200033e6200032f565b6200034b81848462000304565b505050565b5b8181101562000373576200036760008262000334565b60018101905062000351565b5050565b601f821115620003c2576200038c8162000236565b62000397846200024b565b81016020851015620003a7578190505b620003bf620003b6856200024b565b83018262000350565b50505b505050565b600082821c905092915050565b6000620003e760001984600802620003c7565b1980831691505092915050565b6000620004028383620003d4565b9150826002028217905092915050565b6200041d8262000198565b67ffffffffffffffff811115620004395762000438620001a3565b5b62000445825462000201565b6200045282828562000377565b600060209050601f8311600181146200048a576000841562000475578287015190505b620004818582620003f4565b865550620004f1565b601f1984166200049a8662000236565b60005b82811015620004c4578489015182556001820191506020850194506020810190506200049d565b86831015620004e45784890151620004e0601f891682620003d4565b8355505b6001600288020188555050505b505050505050565b613bf780620005096000396000f3fe6080604052600436106101355760003560e01c806370a08231116100ab578063a22cb4651161006f578063a22cb465146103f1578063b88d4fde1461041a578063c87b56dd14610443578063e985e9c514610480578063f2fde38b146104bd578063fb37e883146104e657610135565b806370a082311461031e578063715018a61461035b5780638da5cb5b1461037257806394383f141461039d57806395d89b41146103c657610135565b806323b872dd116100fd57806323b872dd1461023357806324600fc31461025c578063305a67a81461027357806342842e0e1461029c57806351ed8288146102c55780636352211e146102e157610135565b8063010a38f51461013a57806301ffc9a71461016557806306fdde03146101a2578063081812fc146101cd578063095ea7b31461020a575b600080fd5b34801561014657600080fd5b5061014f61050f565b60405161015c9190612650565b60405180910390f35b34801561017157600080fd5b5061018c600480360381019061018791906126d7565b610520565b604051610199919061271f565b60405180910390f35b3480156101ae57600080fd5b506101b7610602565b6040516101c491906127ca565b60405180910390f35b3480156101d957600080fd5b506101f460048036038101906101ef9190612818565b610694565b6040516102019190612886565b60405180910390f35b34801561021657600080fd5b50610231600480360381019061022c91906128cd565b6106da565b005b34801561023f57600080fd5b5061025a6004803603810190610255919061290d565b6107f1565b005b34801561026857600080fd5b50610271610851565b005b34801561027f57600080fd5b5061029a60048036038101906102959190612818565b6108e2565b005b3480156102a857600080fd5b506102c360048036038101906102be919061290d565b610b88565b005b6102df60048036038101906102da9190612818565b610ba8565b005b3480156102ed57600080fd5b5061030860048036038101906103039190612818565b610e9e565b6040516103159190612886565b60405180910390f35b34801561032a57600080fd5b5061034560048036038101906103409190612960565b610f24565b6040516103529190612650565b60405180910390f35b34801561036757600080fd5b50610370610fdb565b005b34801561037e57600080fd5b50610387610fef565b6040516103949190612886565b60405180910390f35b3480156103a957600080fd5b506103c460048036038101906103bf919061298d565b611019565b005b3480156103d257600080fd5b506103db61113b565b6040516103e891906127ca565b60405180910390f35b3480156103fd57600080fd5b50610418600480360381019061041391906129f9565b6111cd565b005b34801561042657600080fd5b50610441600480360381019061043c9190612b6e565b6111e3565b005b34801561044f57600080fd5b5061046a60048036038101906104659190612818565b611245565b60405161047791906127ca565b60405180910390f35b34801561048c57600080fd5b506104a760048036038101906104a29190612bf1565b611357565b6040516104b4919061271f565b60405180910390f35b3480156104c957600080fd5b506104e460048036038101906104df9190612960565b6113eb565b005b3480156104f257600080fd5b5061050d60048036038101906105089190612cd2565b61146e565b005b600061051b60086114e0565b905090565b60007f80ac58cd000000000000000000000000000000000000000000000000000000007bffffffffffffffffffffffffffffffffffffffffffffffffffffffff1916827bffffffffffffffffffffffffffffffffffffffffffffffffffffffff191614806105eb57507f5b5e139f000000000000000000000000000000000000000000000000000000007bffffffffffffffffffffffffffffffffffffffffffffffffffffffff1916827bffffffffffffffffffffffffffffffffffffffffffffffffffffffff1916145b806105fb57506105fa826114ee565b5b9050919050565b60606000805461061190612d4a565b80601f016020809104026020016040519081016040528092919081815260200182805461063d90612d4a565b801561068a5780601f1061065f5761010080835404028352916020019161068a565b820191906000526020600020905b81548152906001019060200180831161066d57829003601f168201915b5050505050905090565b600061069f82611558565b6004600083815260200190815260200160002060009054906101000a900473ffffffffffffffffffffffffffffffffffffffff169050919050565b60006106e582610e9e565b90508073ffffffffffffffffffffffffffffffffffffffff168373ffffffffffffffffffffffffffffffffffffffff1603610755576040517f08c379a000000000000000000000000000000000000000000000000000000000815260040161074c90612ded565b60405180910390fd5b8073ffffffffffffffffffffffffffffffffffffffff166107746115a3565b73ffffffffffffffffffffffffffffffffffffffff1614806107a357506107a28161079d6115a3565b611357565b5b6107e2576040517f08c379a00000000000000000000000000000000000000000000000000000000081526004016107d990612e7f565b60405180910390fd5b6107ec83836115ab565b505050565b6108026107fc6115a3565b82611664565b610841576040517f08c379a000000000000000000000000000000000000000000000000000000000815260040161083890612f11565b60405180910390fd5b61084c8383836116f9565b505050565b6108596119f2565b600047905060008111610898576040517f0f6d691300000000000000000000000000000000000000000000000000000000815260040160405180910390fd5b3373ffffffffffffffffffffffffffffffffffffffff166108fc829081150290604051600060405180830381858888f193505050501580156108de573d6000803e3d6000fd5b5050565b80600060096000838152602001908152602001600020604051806040016040529081600082015481526020016001820160009054906101000a900473ffffffffffffffffffffffffffffffffffffffff1673ffffffffffffffffffffffffffffffffffffffff1673ffffffffffffffffffffffffffffffffffffffff1681525050905060008160000151116109a3576040517fc7c0742a00000000000000000000000000000000000000000000000000000000815260040160405180910390fd5b82600060096000838152602001908152602001600020604051806040016040529081600082015481526020016001820160009054906101000a900473ffffffffffffffffffffffffffffffffffffffff1673ffffffffffffffffffffffffffffffffffffffff1673ffffffffffffffffffffffffffffffffffffffff168152505090503373ffffffffffffffffffffffffffffffffffffffff16816020015173ffffffffffffffffffffffffffffffffffffffff1614610a8f576040517f7cf2c72b00000000000000000000000000000000000000000000000000000000815260040160405180910390fd5b600960008681526020019081526020016000206000808201600090556001820160006101000a81549073ffffffffffffffffffffffffffffffffffffffff021916905550503073ffffffffffffffffffffffffffffffffffffffff166323b872dd3033886040518463ffffffff1660e01b8152600401610b1193929190612f31565b600060405180830381600087803b158015610b2b57600080fd5b505af1158015610b3f573d6000803e3d6000fd5b505050507f6c6123fde526391ef549308e9c2fda33f57082b7be31768c906b04081abb71658530336000604051610b799493929190612fd3565b60405180910390a15050505050565b610ba3838383604051806020016040528060008152506111e3565b505050565b80600060096000838152602001908152602001600020604051806040016040529081600082015481526020016001820160009054906101000a900473ffffffffffffffffffffffffffffffffffffffff1673ffffffffffffffffffffffffffffffffffffffff1673ffffffffffffffffffffffffffffffffffffffff168152505090506000816000015111610c69576040517fc7c0742a00000000000000000000000000000000000000000000000000000000815260040160405180910390fd5b600060096000858152602001908152602001600020604051806040016040529081600082015481526020016001820160009054906101000a900473ffffffffffffffffffffffffffffffffffffffff1673ffffffffffffffffffffffffffffffffffffffff1673ffffffffffffffffffffffffffffffffffffffff1681525050905034816000015114610d31576040517f08c379a0000000000000000000000000000000000000000000000000000000008152600401610d2890613077565b60405180910390fd5b3073ffffffffffffffffffffffffffffffffffffffff166323b872dd3033876040518463ffffffff1660e01b8152600401610d6e93929190612f31565b600060405180830381600087803b158015610d8857600080fd5b505af1158015610d9c573d6000803e3d6000fd5b50505050600960008581526020019081526020016000206000808201600090556001820160006101000a81549073ffffffffffffffffffffffffffffffffffffffff02191690555050806020015173ffffffffffffffffffffffffffffffffffffffff166108fc610e2e6064610e20605f8660000151611a7090919063ffffffff16565b611a8690919063ffffffff16565b9081150290604051600060405180830381858888f19350505050158015610e59573d6000803e3d6000fd5b507f6c6123fde526391ef549308e9c2fda33f57082b7be31768c906b04081abb71658430336000604051610e909493929190612fd3565b60405180910390a150505050565b600080610eaa83611a9c565b9050600073ffffffffffffffffffffffffffffffffffffffff168173ffffffffffffffffffffffffffffffffffffffff1603610f1b576040517f08c379a0000000000000000000000000000000000000000000000000000000008152600401610f12906130e3565b60405180910390fd5b80915050919050565b60008073ffffffffffffffffffffffffffffffffffffffff168273ffffffffffffffffffffffffffffffffffffffff1603610f94576040517f08c379a0000000000000000000000000000000000000000000000000000000008152600401610f8b90613175565b60405180910390fd5b600360008373ffffffffffffffffffffffffffffffffffffffff1673ffffffffffffffffffffffffffffffffffffffff168152602001908152602001600020549050919050565b610fe36119f2565b610fed6000611ad9565b565b6000600760009054906101000a900473ffffffffffffffffffffffffffffffffffffffff16905090565b60008111611053576040517f0471b37300000000000000000000000000000000000000000000000000000000815260040160405180910390fd5b61105d30836106da565b6110683330846107f1565b60405180604001604052808281526020013373ffffffffffffffffffffffffffffffffffffffff16815250600960008481526020019081526020016000206000820151816000015560208201518160010160006101000a81548173ffffffffffffffffffffffffffffffffffffffff021916908373ffffffffffffffffffffffffffffffffffffffff1602179055509050507f6c6123fde526391ef549308e9c2fda33f57082b7be31768c906b04081abb71658233308460405161112f9493929190613195565b60405180910390a15050565b60606001805461114a90612d4a565b80601f016020809104026020016040519081016040528092919081815260200182805461117690612d4a565b80156111c35780601f10611198576101008083540402835291602001916111c3565b820191906000526020600020905b8154815290600101906020018083116111a657829003601f168201915b5050505050905090565b6111df6111d86115a3565b8383611b9f565b5050565b6111f46111ee6115a3565b83611664565b611233576040517f08c379a000000000000000000000000000000000000000000000000000000000815260040161122a90612f11565b60405180910390fd5b61123f84848484611d0b565b50505050565b606061125082611558565b600060066000848152602001908152602001600020805461127090612d4a565b80601f016020809104026020016040519081016040528092919081815260200182805461129c90612d4a565b80156112e95780601f106112be576101008083540402835291602001916112e9565b820191906000526020600020905b8154815290600101906020018083116112cc57829003601f168201915b5050505050905060006112fa611d67565b9050600081510361130f578192505050611352565b60008251111561134457808260405160200161132c929190613229565b60405160208183030381529060405292505050611352565b61134d84611d7e565b925050505b919050565b6000600560008473ffffffffffffffffffffffffffffffffffffffff1673ffffffffffffffffffffffffffffffffffffffff16815260200190815260200160002060008373ffffffffffffffffffffffffffffffffffffffff1673ffffffffffffffffffffffffffffffffffffffff16815260200190815260200160002060009054906101000a900460ff16905092915050565b6113f36119f2565b600073ffffffffffffffffffffffffffffffffffffffff168173ffffffffffffffffffffffffffffffffffffffff1603611462576040517f08c379a0000000000000000000000000000000000000000000000000000000008152600401611459906132bf565b60405180910390fd5b61146b81611ad9565b50565b60008061147b60086114e0565b90506114873382611de6565b6114918184611e04565b61149b6008611e71565b7f6c6123fde526391ef549308e9c2fda33f57082b7be31768c906b04081abb71658183338660006040516114d39594939291906132df565b60405180910390a1505050565b600081600001549050919050565b60007f01ffc9a7000000000000000000000000000000000000000000000000000000007bffffffffffffffffffffffffffffffffffffffffffffffffffffffff1916827bffffffffffffffffffffffffffffffffffffffffffffffffffffffff1916149050919050565b61156181611e87565b6115a0576040517f08c379a0000000000000000000000000000000000000000000000000000000008152600401611597906130e3565b60405180910390fd5b50565b600033905090565b816004600083815260200190815260200160002060006101000a81548173ffffffffffffffffffffffffffffffffffffffff021916908373ffffffffffffffffffffffffffffffffffffffff160217905550808273ffffffffffffffffffffffffffffffffffffffff1661161e83610e9e565b73ffffffffffffffffffffffffffffffffffffffff167f8c5be1e5ebec7d5bd14f71427d1e84f3dd0314c0f7b2291e5b200ac8c7c3b92560405160405180910390a45050565b60008061167083610e9e565b90508073ffffffffffffffffffffffffffffffffffffffff168473ffffffffffffffffffffffffffffffffffffffff1614806116b257506116b18185611357565b5b806116f057508373ffffffffffffffffffffffffffffffffffffffff166116d884610694565b73ffffffffffffffffffffffffffffffffffffffff16145b91505092915050565b8273ffffffffffffffffffffffffffffffffffffffff1661171982610e9e565b73ffffffffffffffffffffffffffffffffffffffff161461176f576040517f08c379a0000000000000000000000000000000000000000000000000000000008152600401611766906133ab565b60405180910390fd5b600073ffffffffffffffffffffffffffffffffffffffff168273ffffffffffffffffffffffffffffffffffffffff16036117de576040517f08c379a00000000000000000000000000000000000000000000000000000000081526004016117d59061343d565b60405180910390fd5b6117eb8383836001611ec8565b8273ffffffffffffffffffffffffffffffffffffffff1661180b82610e9e565b73ffffffffffffffffffffffffffffffffffffffff1614611861576040517f08c379a0000000000000000000000000000000000000000000000000000000008152600401611858906133ab565b60405180910390fd5b6004600082815260200190815260200160002060006101000a81549073ffffffffffffffffffffffffffffffffffffffff02191690556001600360008573ffffffffffffffffffffffffffffffffffffffff1673ffffffffffffffffffffffffffffffffffffffff168152602001908152602001600020600082825403925050819055506001600360008473ffffffffffffffffffffffffffffffffffffffff1673ffffffffffffffffffffffffffffffffffffffff16815260200190815260200160002060008282540192505081905550816002600083815260200190815260200160002060006101000a81548173ffffffffffffffffffffffffffffffffffffffff021916908373ffffffffffffffffffffffffffffffffffffffff160217905550808273ffffffffffffffffffffffffffffffffffffffff168473ffffffffffffffffffffffffffffffffffffffff167fddf252ad1be2c89b69c2b068fc378daa952ba7f163c4a11628f55a4df523b3ef60405160405180910390a46119ed8383836001611fee565b505050565b6119fa6115a3565b73ffffffffffffffffffffffffffffffffffffffff16611a18610fef565b73ffffffffffffffffffffffffffffffffffffffff1614611a6e576040517f08c379a0000000000000000000000000000000000000000000000000000000008152600401611a65906134a9565b60405180910390fd5b565b60008183611a7e91906134f8565b905092915050565b60008183611a949190613569565b905092915050565b60006002600083815260200190815260200160002060009054906101000a900473ffffffffffffffffffffffffffffffffffffffff169050919050565b6000600760009054906101000a900473ffffffffffffffffffffffffffffffffffffffff16905081600760006101000a81548173ffffffffffffffffffffffffffffffffffffffff021916908373ffffffffffffffffffffffffffffffffffffffff1602179055508173ffffffffffffffffffffffffffffffffffffffff168173ffffffffffffffffffffffffffffffffffffffff167f8be0079c531659141344cd1fd0a4f28419497f9722a3daafe3b4186f6b6457e060405160405180910390a35050565b8173ffffffffffffffffffffffffffffffffffffffff168373ffffffffffffffffffffffffffffffffffffffff1603611c0d576040517f08c379a0000000000000000000000000000000000000000000000000000000008152600401611c04906135e6565b60405180910390fd5b80600560008573ffffffffffffffffffffffffffffffffffffffff1673ffffffffffffffffffffffffffffffffffffffff16815260200190815260200160002060008473ffffffffffffffffffffffffffffffffffffffff1673ffffffffffffffffffffffffffffffffffffffff16815260200190815260200160002060006101000a81548160ff0219169083151502179055508173ffffffffffffffffffffffffffffffffffffffff168373ffffffffffffffffffffffffffffffffffffffff167f17307eab39ab6107e8899845ad3d59bd9653f200f220920489ca2b5937696c3183604051611cfe919061271f565b60405180910390a3505050565b611d168484846116f9565b611d2284848484611ff4565b611d61576040517f08c379a0000000000000000000000000000000000000000000000000000000008152600401611d5890613678565b60405180910390fd5b50505050565b606060405180602001604052806000815250905090565b6060611d8982611558565b6000611d93611d67565b90506000815111611db35760405180602001604052806000815250611dde565b80611dbd8461217b565b604051602001611dce929190613229565b6040516020818303038152906040525b915050919050565b611e00828260405180602001604052806000815250612249565b5050565b611e0d82611e87565b611e4c576040517f08c379a0000000000000000000000000000000000000000000000000000000008152600401611e439061370a565b60405180910390fd5b80600660008481526020019081526020016000209081611e6c91906138cc565b505050565b6001816000016000828254019250508190555050565b60008073ffffffffffffffffffffffffffffffffffffffff16611ea983611a9c565b73ffffffffffffffffffffffffffffffffffffffff1614159050919050565b6001811115611fe857600073ffffffffffffffffffffffffffffffffffffffff168473ffffffffffffffffffffffffffffffffffffffff1614611f5c5780600360008673ffffffffffffffffffffffffffffffffffffffff1673ffffffffffffffffffffffffffffffffffffffff1681526020019081526020016000206000828254611f54919061399e565b925050819055505b600073ffffffffffffffffffffffffffffffffffffffff168373ffffffffffffffffffffffffffffffffffffffff1614611fe75780600360008573ffffffffffffffffffffffffffffffffffffffff1673ffffffffffffffffffffffffffffffffffffffff1681526020019081526020016000206000828254611fdf91906139d2565b925050819055505b5b50505050565b50505050565b60006120158473ffffffffffffffffffffffffffffffffffffffff166122a4565b1561216e578373ffffffffffffffffffffffffffffffffffffffff1663150b7a0261203e6115a3565b8786866040518563ffffffff1660e01b81526004016120609493929190613a5b565b6020604051808303816000875af192505050801561209c57506040513d601f19601f820116820180604052508101906120999190613abc565b60015b61211e573d80600081146120cc576040519150601f19603f3d011682016040523d82523d6000602084013e6120d1565b606091505b506000815103612116576040517f08c379a000000000000000000000000000000000000000000000000000000000815260040161210d90613678565b60405180910390fd5b805181602001fd5b63150b7a0260e01b7bffffffffffffffffffffffffffffffffffffffffffffffffffffffff1916817bffffffffffffffffffffffffffffffffffffffffffffffffffffffff191614915050612173565b600190505b949350505050565b60606000600161218a846122c7565b01905060008167ffffffffffffffff8111156121a9576121a8612a43565b5b6040519080825280601f01601f1916602001820160405280156121db5781602001600182028036833780820191505090505b509050600082602001820190505b60011561223e578080600190039150507f3031323334353637383961626364656600000000000000000000000000000000600a86061a8153600a85816122325761223161353a565b5b049450600085036121e9575b819350505050919050565b612253838361241a565b6122606000848484611ff4565b61229f576040517f08c379a000000000000000000000000000000000000000000000000000000000815260040161229690613678565b60405180910390fd5b505050565b6000808273ffffffffffffffffffffffffffffffffffffffff163b119050919050565b600080600090507a184f03e93ff9f4daa797ed6e38ed64bf6a1f0100000000000000008310612325577a184f03e93ff9f4daa797ed6e38ed64bf6a1f010000000000000000838161231b5761231a61353a565b5b0492506040810190505b6d04ee2d6d415b85acef81000000008310612362576d04ee2d6d415b85acef810000000083816123585761235761353a565b5b0492506020810190505b662386f26fc10000831061239157662386f26fc1000083816123875761238661353a565b5b0492506010810190505b6305f5e10083106123ba576305f5e10083816123b0576123af61353a565b5b0492506008810190505b61271083106123df5761271083816123d5576123d461353a565b5b0492506004810190505b6064831061240257606483816123f8576123f761353a565b5b0492506002810190505b600a8310612411576001810190505b80915050919050565b600073ffffffffffffffffffffffffffffffffffffffff168273ffffffffffffffffffffffffffffffffffffffff1603612489576040517f08c379a000000000000000000000000000000000000000000000000000000000815260040161248090613b35565b60405180910390fd5b61249281611e87565b156124d2576040517f08c379a00000000000000000000000000000000000000000000000000000000081526004016124c990613ba1565b60405180910390fd5b6124e0600083836001611ec8565b6124e981611e87565b15612529576040517f08c379a000000000000000000000000000000000000000000000000000000000815260040161252090613ba1565b60405180910390fd5b6001600360008473ffffffffffffffffffffffffffffffffffffffff1673ffffffffffffffffffffffffffffffffffffffff16815260200190815260200160002060008282540192505081905550816002600083815260200190815260200160002060006101000a81548173ffffffffffffffffffffffffffffffffffffffff021916908373ffffffffffffffffffffffffffffffffffffffff160217905550808273ffffffffffffffffffffffffffffffffffffffff16600073ffffffffffffffffffffffffffffffffffffffff167fddf252ad1be2c89b69c2b068fc378daa952ba7f163c4a11628f55a4df523b3ef60405160405180910390a4612633600083836001611fee565b5050565b6000819050919050565b61264a81612637565b82525050565b60006020820190506126656000830184612641565b92915050565b6000604051905090565b600080fd5b600080fd5b60007fffffffff0000000000000000000000000000000000000000000000000000000082169050919050565b6126b48161267f565b81146126bf57600080fd5b50565b6000813590506126d1816126ab565b92915050565b6000602082840312156126ed576126ec612675565b5b60006126fb848285016126c2565b91505092915050565b60008115159050919050565b61271981612704565b82525050565b60006020820190506127346000830184612710565b92915050565b600081519050919050565b600082825260208201905092915050565b60005b83811015612774578082015181840152602081019050612759565b60008484015250505050565b6000601f19601f8301169050919050565b600061279c8261273a565b6127a68185612745565b93506127b6818560208601612756565b6127bf81612780565b840191505092915050565b600060208201905081810360008301526127e48184612791565b905092915050565b6127f581612637565b811461280057600080fd5b50565b600081359050612812816127ec565b92915050565b60006020828403121561282e5761282d612675565b5b600061283c84828501612803565b91505092915050565b600073ffffffffffffffffffffffffffffffffffffffff82169050919050565b600061287082612845565b9050919050565b61288081612865565b82525050565b600060208201905061289b6000830184612877565b92915050565b6128aa81612865565b81146128b557600080fd5b50565b6000813590506128c7816128a1565b92915050565b600080604083850312156128e4576128e3612675565b5b60006128f2858286016128b8565b925050602061290385828601612803565b9150509250929050565b60008060006060848603121561292657612925612675565b5b6000612934868287016128b8565b9350506020612945868287016128b8565b925050604061295686828701612803565b9150509250925092565b60006020828403121561297657612975612675565b5b6000612984848285016128b8565b91505092915050565b600080604083850312156129a4576129a3612675565b5b60006129b285828601612803565b92505060206129c385828601612803565b9150509250929050565b6129d681612704565b81146129e157600080fd5b50565b6000813590506129f3816129cd565b92915050565b60008060408385031215612a1057612a0f612675565b5b6000612a1e858286016128b8565b9250506020612a2f858286016129e4565b9150509250929050565b600080fd5b600080fd5b7f4e487b7100000000000000000000000000000000000000000000000000000000600052604160045260246000fd5b612a7b82612780565b810181811067ffffffffffffffff82111715612a9a57612a99612a43565b5b80604052505050565b6000612aad61266b565b9050612ab98282612a72565b919050565b600067ffffffffffffffff821115612ad957612ad8612a43565b5b612ae282612780565b9050602081019050919050565b82818337600083830152505050565b6000612b11612b0c84612abe565b612aa3565b905082815260208101848484011115612b2d57612b2c612a3e565b5b612b38848285612aef565b509392505050565b600082601f830112612b5557612b54612a39565b5b8135612b65848260208601612afe565b91505092915050565b60008060008060808587031215612b8857612b87612675565b5b6000612b96878288016128b8565b9450506020612ba7878288016128b8565b9350506040612bb887828801612803565b925050606085013567ffffffffffffffff811115612bd957612bd861267a565b5b612be587828801612b40565b91505092959194509250565b60008060408385031215612c0857612c07612675565b5b6000612c16858286016128b8565b9250506020612c27858286016128b8565b9150509250929050565b600067ffffffffffffffff821115612c4c57612c4b612a43565b5b612c5582612780565b9050602081019050919050565b6000612c75612c7084612c31565b612aa3565b905082815260208101848484011115612c9157612c90612a3e565b5b612c9c848285612aef565b509392505050565b600082601f830112612cb957612cb8612a39565b5b8135612cc9848260208601612c62565b91505092915050565b600060208284031215612ce857612ce7612675565b5b600082013567ffffffffffffffff811115612d0657612d0561267a565b5b612d1284828501612ca4565b91505092915050565b7f4e487b7100000000000000000000000000000000000000000000000000000000600052602260045260246000fd5b60006002820490506001821680612d6257607f821691505b602082108103612d7557612d74612d1b565b5b50919050565b7f4552433732313a20617070726f76616c20746f2063757272656e74206f776e6560008201527f7200000000000000000000000000000000000000000000000000000000000000602082015250565b6000612dd7602183612745565b9150612de282612d7b565b604082019050919050565b60006020820190508181036000830152612e0681612dca565b9050919050565b7f4552433732313a20617070726f76652063616c6c6572206973206e6f7420746f60008201527f6b656e206f776e6572206f7220617070726f76656420666f7220616c6c000000602082015250565b6000612e69603d83612745565b9150612e7482612e0d565b604082019050919050565b60006020820190508181036000830152612e9881612e5c565b9050919050565b7f4552433732313a2063616c6c6572206973206e6f7420746f6b656e206f776e6560008201527f72206f7220617070726f76656400000000000000000000000000000000000000602082015250565b6000612efb602d83612745565b9150612f0682612e9f565b604082019050919050565b60006020820190508181036000830152612f2a81612eee565b9050919050565b6000606082019050612f466000830186612877565b612f536020830185612877565b612f606040830184612641565b949350505050565b50565b6000612f78600083612745565b9150612f8382612f68565b600082019050919050565b6000819050919050565b6000819050919050565b6000612fbd612fb8612fb384612f8e565b612f98565b612637565b9050919050565b612fcd81612fa2565b82525050565b600060a082019050612fe86000830187612641565b612ff56020830186612877565b6130026040830185612877565b818103606083015261301381612f6b565b90506130226080830184612fc4565b95945050505050565b7f4e4654204d61726b65743a20496e636f72726563742070726963650000000000600082015250565b6000613061601b83612745565b915061306c8261302b565b602082019050919050565b6000602082019050818103600083015261309081613054565b9050919050565b7f4552433732313a20696e76616c696420746f6b656e2049440000000000000000600082015250565b60006130cd601883612745565b91506130d882613097565b602082019050919050565b600060208201905081810360008301526130fc816130c0565b9050919050565b7f4552433732313a2061646472657373207a65726f206973206e6f74206120766160008201527f6c6964206f776e65720000000000000000000000000000000000000000000000602082015250565b600061315f602983612745565b915061316a82613103565b604082019050919050565b6000602082019050818103600083015261318e81613152565b9050919050565b600060a0820190506131aa6000830187612641565b6131b76020830186612877565b6131c46040830185612877565b81810360608301526131d581612f6b565b90506131e46080830184612641565b95945050505050565b600081905092915050565b60006132038261273a565b61320d81856131ed565b935061321d818560208601612756565b80840191505092915050565b600061323582856131f8565b915061324182846131f8565b91508190509392505050565b7f4f776e61626c653a206e6577206f776e657220697320746865207a65726f206160008201527f6464726573730000000000000000000000000000000000000000000000000000602082015250565b60006132a9602683612745565b91506132b48261324d565b604082019050919050565b600060208201905081810360008301526132d88161329c565b9050919050565b600060a0820190506132f46000830188612641565b6133016020830187612877565b61330e6040830186612877565b81810360608301526133208185612791565b905061332f6080830184612fc4565b9695505050505050565b7f4552433732313a207472616e736665722066726f6d20696e636f72726563742060008201527f6f776e6572000000000000000000000000000000000000000000000000000000602082015250565b6000613395602583612745565b91506133a082613339565b604082019050919050565b600060208201905081810360008301526133c481613388565b9050919050565b7f4552433732313a207472616e7366657220746f20746865207a65726f2061646460008201527f7265737300000000000000000000000000000000000000000000000000000000602082015250565b6000613427602483612745565b9150613432826133cb565b604082019050919050565b600060208201905081810360008301526134568161341a565b9050919050565b7f4f776e61626c653a2063616c6c6572206973206e6f7420746865206f776e6572600082015250565b6000613493602083612745565b915061349e8261345d565b602082019050919050565b600060208201905081810360008301526134c281613486565b9050919050565b7f4e487b7100000000000000000000000000000000000000000000000000000000600052601160045260246000fd5b600061350382612637565b915061350e83612637565b925082820261351c81612637565b91508282048414831517613533576135326134c9565b5b5092915050565b7f4e487b7100000000000000000000000000000000000000000000000000000000600052601260045260246000fd5b600061357482612637565b915061357f83612637565b92508261358f5761358e61353a565b5b828204905092915050565b7f4552433732313a20617070726f766520746f2063616c6c657200000000000000600082015250565b60006135d0601983612745565b91506135db8261359a565b602082019050919050565b600060208201905081810360008301526135ff816135c3565b9050919050565b7f4552433732313a207472616e7366657220746f206e6f6e20455243373231526560008201527f63656976657220696d706c656d656e7465720000000000000000000000000000602082015250565b6000613662603283612745565b915061366d82613606565b604082019050919050565b6000602082019050818103600083015261369181613655565b9050919050565b7f45524337323155524953746f726167653a2055524920736574206f66206e6f6e60008201527f6578697374656e7420746f6b656e000000000000000000000000000000000000602082015250565b60006136f4602e83612745565b91506136ff82613698565b604082019050919050565b60006020820190508181036000830152613723816136e7565b9050919050565b60008190508160005260206000209050919050565b60006020601f8301049050919050565b600082821b905092915050565b60006008830261378c7fffffffffffffffffffffffffffffffffffffffffffffffffffffffffffffffff8261374f565b613796868361374f565b95508019841693508086168417925050509392505050565b60006137c96137c46137bf84612637565b612f98565b612637565b9050919050565b6000819050919050565b6137e3836137ae565b6137f76137ef826137d0565b84845461375c565b825550505050565b600090565b61380c6137ff565b6138178184846137da565b505050565b5b8181101561383b57613830600082613804565b60018101905061381d565b5050565b601f821115613880576138518161372a565b61385a8461373f565b81016020851015613869578190505b61387d6138758561373f565b83018261381c565b50505b505050565b600082821c905092915050565b60006138a360001984600802613885565b1980831691505092915050565b60006138bc8383613892565b9150826002028217905092915050565b6138d58261273a565b67ffffffffffffffff8111156138ee576138ed612a43565b5b6138f88254612d4a565b61390382828561383f565b600060209050601f8311600181146139365760008415613924578287015190505b61392e85826138b0565b865550613996565b601f1984166139448661372a565b60005b8281101561396c57848901518255600182019150602085019450602081019050613947565b868310156139895784890151613985601f891682613892565b8355505b6001600288020188555050505b505050505050565b60006139a982612637565b91506139b483612637565b92508282039050818111156139cc576139cb6134c9565b5b92915050565b60006139dd82612637565b91506139e883612637565b9250828201905080821115613a00576139ff6134c9565b5b92915050565b600081519050919050565b600082825260208201905092915050565b6000613a2d82613a06565b613a378185613a11565b9350613a47818560208601612756565b613a5081612780565b840191505092915050565b6000608082019050613a706000830187612877565b613a7d6020830186612877565b613a8a6040830185612641565b8181036060830152613a9c8184613a22565b905095945050505050565b600081519050613ab6816126ab565b92915050565b600060208284031215613ad257613ad1612675565b5b6000613ae084828501613aa7565b91505092915050565b7f4552433732313a206d696e7420746f20746865207a65726f2061646472657373600082015250565b6000613b1f602083612745565b9150613b2a82613ae9565b602082019050919050565b60006020820190508181036000830152613b4e81613b12565b9050919050565b7f4552433732313a20746f6b656e20616c7265616479206d696e74656400000000600082015250565b6000613b8b601c83612745565b9150613b9682613b55565b602082019050919050565b60006020820190508181036000830152613bba81613b7e565b905091905056fea2646970667358221220cde0b7d43a56ce1208f4310e20616ed9489c14b9f760bbed3bf99fd90b12187864736f6c63430008110033",
  "devdoc": {
    "kind": "dev",
    "methods": {
      "approve(address,uint256)": {
        "details": "See {IERC721-approve}."
      },
      "balanceOf(address)": {
        "details": "See {IERC721-balanceOf}."
      },
      "buyNFT(uint256)": {
        "params": {
          "tokenId": "unique id for the required NFT."
        }
      },
      "getApproved(uint256)": {
        "details": "See {IERC721-getApproved}."
      },
      "isApprovedForAll(address,address)": {
        "details": "See {IERC721-isApprovedForAll}."
      },
      "listNFT(uint256,uint256)": {
        "params": {
          "price": "price of the NFT",
          "tokenId": "gives a unique tokenId for an NFT"
        }
      },
      "name()": {
        "details": "See {IERC721Metadata-name}."
      },
      "owner()": {
        "details": "Returns the address of the current owner."
      },
      "ownerOf(uint256)": {
        "details": "See {IERC721-ownerOf}."
      },
      "renounceOwnership()": {
        "details": "Leaves the contract without owner. It will not be possible to call `onlyOwner` functions anymore. Can only be called by the current owner. NOTE: Renouncing ownership will leave the contract without an owner, thereby removing any functionality that is only available to the owner."
      },
      "safeTransferFrom(address,address,uint256)": {
        "details": "See {IERC721-safeTransferFrom}."
      },
      "safeTransferFrom(address,address,uint256,bytes)": {
        "details": "See {IERC721-safeTransferFrom}."
      },
      "setApprovalForAll(address,bool)": {
        "details": "See {IERC721-setApprovalForAll}."
      },
      "supportsInterface(bytes4)": {
        "details": "See {IERC165-supportsInterface}."
      },
      "symbol()": {
        "details": "See {IERC721Metadata-symbol}."
      },
      "tokenURI(uint256)": {
        "details": "See {IERC721Metadata-tokenURI}."
      },
      "transferFrom(address,address,uint256)": {
        "details": "See {IERC721-transferFrom}."
      },
      "transferOwnership(address)": {
        "details": "Transfers ownership of the contract to a new account (`newOwner`). Can only be called by the current owner."
      }
    },
    "version": 1
  },
  "userdoc": {
    "events": {
      "NftTransfer(uint256,address,address,string,uint256)": {
        "notice": "Events - useful for the frontend of the app."
      }
    },
    "kind": "user",
    "methods": {
      "buyNFT(uint256)": {
        "notice": "Buy an NFT 2 Conditions should be met - the NFT should be listed and the amount recieved should be equal to the listing price of the NFT."
      },
      "cancelListing(uint256)": {
        "notice": "Cancel the listing of an NFT 2 conditions - the NFT should be listed and the owner should be the one who calls this function"
      },
      "listNFT(uint256,uint256)": {
        "notice": "List an NFT"
      }
    },
    "version": 1
  },
  "storageLayout": {
    "storage": [
      {
        "astId": 138,
        "contract": "contracts/NFTMarket.sol:NFTMarket",
        "label": "_name",
        "offset": 0,
        "slot": "0",
        "type": "t_string_storage"
      },
      {
        "astId": 140,
        "contract": "contracts/NFTMarket.sol:NFTMarket",
        "label": "_symbol",
        "offset": 0,
        "slot": "1",
        "type": "t_string_storage"
      },
      {
        "astId": 144,
        "contract": "contracts/NFTMarket.sol:NFTMarket",
        "label": "_owners",
        "offset": 0,
        "slot": "2",
        "type": "t_mapping(t_uint256,t_address)"
      },
      {
        "astId": 148,
        "contract": "contracts/NFTMarket.sol:NFTMarket",
        "label": "_balances",
        "offset": 0,
        "slot": "3",
        "type": "t_mapping(t_address,t_uint256)"
      },
      {
        "astId": 152,
        "contract": "contracts/NFTMarket.sol:NFTMarket",
        "label": "_tokenApprovals",
        "offset": 0,
        "slot": "4",
        "type": "t_mapping(t_uint256,t_address)"
      },
      {
        "astId": 158,
        "contract": "contracts/NFTMarket.sol:NFTMarket",
        "label": "_operatorApprovals",
        "offset": 0,
        "slot": "5",
        "type": "t_mapping(t_address,t_mapping(t_address,t_bool))"
      },
      {
        "astId": 1204,
        "contract": "contracts/NFTMarket.sol:NFTMarket",
        "label": "_tokenURIs",
        "offset": 0,
        "slot": "6",
        "type": "t_mapping(t_uint256,t_string_storage)"
      },
      {
        "astId": 7,
        "contract": "contracts/NFTMarket.sol:NFTMarket",
        "label": "_owner",
        "offset": 0,
        "slot": "7",
        "type": "t_address"
      },
      {
        "astId": 3185,
        "contract": "contracts/NFTMarket.sol:NFTMarket",
        "label": "_tokenIds",
        "offset": 0,
        "slot": "8",
        "type": "t_struct(Counter)1701_storage"
      },
      {
        "astId": 3208,
        "contract": "contracts/NFTMarket.sol:NFTMarket",
        "label": "s_listings",
        "offset": 0,
        "slot": "9",
        "type": "t_mapping(t_uint256,t_struct(Listing)3203_storage)"
      }
    ],
    "types": {
      "t_address": {
        "encoding": "inplace",
        "label": "address",
        "numberOfBytes": "20"
      },
      "t_bool": {
        "encoding": "inplace",
        "label": "bool",
        "numberOfBytes": "1"
      },
      "t_mapping(t_address,t_bool)": {
        "encoding": "mapping",
        "key": "t_address",
        "label": "mapping(address => bool)",
        "numberOfBytes": "32",
        "value": "t_bool"
      },
      "t_mapping(t_address,t_mapping(t_address,t_bool))": {
        "encoding": "mapping",
        "key": "t_address",
        "label": "mapping(address => mapping(address => bool))",
        "numberOfBytes": "32",
        "value": "t_mapping(t_address,t_bool)"
      },
      "t_mapping(t_address,t_uint256)": {
        "encoding": "mapping",
        "key": "t_address",
        "label": "mapping(address => uint256)",
        "numberOfBytes": "32",
        "value": "t_uint256"
      },
      "t_mapping(t_uint256,t_address)": {
        "encoding": "mapping",
        "key": "t_uint256",
        "label": "mapping(uint256 => address)",
        "numberOfBytes": "32",
        "value": "t_address"
      },
      "t_mapping(t_uint256,t_string_storage)": {
        "encoding": "mapping",
        "key": "t_uint256",
        "label": "mapping(uint256 => string)",
        "numberOfBytes": "32",
        "value": "t_string_storage"
      },
      "t_mapping(t_uint256,t_struct(Listing)3203_storage)": {
        "encoding": "mapping",
        "key": "t_uint256",
        "label": "mapping(uint256 => struct NFTMarket.Listing)",
        "numberOfBytes": "32",
        "value": "t_struct(Listing)3203_storage"
      },
      "t_string_storage": {
        "encoding": "bytes",
        "label": "string",
        "numberOfBytes": "32"
      },
      "t_struct(Counter)1701_storage": {
        "encoding": "inplace",
        "label": "struct Counters.Counter",
        "members": [
          {
            "astId": 1700,
            "contract": "contracts/NFTMarket.sol:NFTMarket",
            "label": "_value",
            "offset": 0,
            "slot": "0",
            "type": "t_uint256"
          }
        ],
        "numberOfBytes": "32"
      },
      "t_struct(Listing)3203_storage": {
        "encoding": "inplace",
        "label": "struct NFTMarket.Listing",
        "members": [
          {
            "astId": 3200,
            "contract": "contracts/NFTMarket.sol:NFTMarket",
            "label": "price",
            "offset": 0,
            "slot": "0",
            "type": "t_uint256"
          },
          {
            "astId": 3202,
            "contract": "contracts/NFTMarket.sol:NFTMarket",
            "label": "seller",
            "offset": 0,
            "slot": "1",
            "type": "t_address"
          }
        ],
        "numberOfBytes": "64"
      },
      "t_uint256": {
        "encoding": "inplace",
        "label": "uint256",
        "numberOfBytes": "32"
      }
    }
  }
}